{
  "contractName": "RentalPlatform",
  "abi": [
    {
      "inputs": [],
      "stateMutability": "nonpayable",
      "type": "constructor"
    },
    {
      "anonymous": false,
      "inputs": [
        {
          "indexed": true,
          "internalType": "address",
          "name": "walletAddress",
          "type": "address"
        },
        {
          "indexed": false,
          "internalType": "uint256",
          "name": "amount",
          "type": "uint256"
        }
      ],
      "name": "BalanceWithdrawn",
      "type": "event"
    },
    {
      "anonymous": false,
      "inputs": [
        {
          "indexed": true,
          "internalType": "uint256",
          "name": "id",
          "type": "uint256"
        },
        {
          "indexed": false,
          "internalType": "string",
          "name": "name",
          "type": "string"
        },
        {
          "indexed": false,
          "internalType": "string",
          "name": "imgUrl",
          "type": "string"
        },
        {
          "indexed": false,
          "internalType": "uint256",
          "name": "rentFee",
          "type": "uint256"
        },
        {
          "indexed": false,
          "internalType": "uint256",
          "name": "saleFee",
          "type": "uint256"
        }
      ],
      "name": "CarAdded",
      "type": "event"
    },
    {
      "anonymous": false,
      "inputs": [
        {
          "indexed": true,
          "internalType": "uint256",
          "name": "id",
          "type": "uint256"
        },
        {
          "indexed": false,
          "internalType": "string",
          "name": "name",
          "type": "string"
        },
        {
          "indexed": false,
          "internalType": "string",
          "name": "imgUrl",
          "type": "string"
        },
        {
          "indexed": false,
          "internalType": "uint256",
          "name": "rentFee",
          "type": "uint256"
        },
        {
          "indexed": false,
          "internalType": "uint256",
          "name": "saleFee",
          "type": "uint256"
        }
      ],
      "name": "CarMetadataEdited",
      "type": "event"
    },
    {
      "anonymous": false,
      "inputs": [
        {
          "indexed": true,
          "internalType": "uint256",
          "name": "id",
          "type": "uint256"
        },
        {
          "indexed": false,
          "internalType": "enum RentalPlatform.Status",
          "name": "status",
          "type": "uint8"
        }
      ],
      "name": "CarStatusEdited",
      "type": "event"
    },
    {
      "anonymous": false,
      "inputs": [
        {
          "indexed": true,
          "internalType": "address",
          "name": "walletAddress",
          "type": "address"
        },
        {
          "indexed": true,
          "internalType": "uint256",
          "name": "carId",
          "type": "uint256"
        }
      ],
      "name": "CheckIn",
      "type": "event"
    },
    {
      "anonymous": false,
      "inputs": [
        {
          "indexed": true,
          "internalType": "address",
          "name": "walletAddress",
          "type": "address"
        },
        {
          "indexed": true,
          "internalType": "uint256",
          "name": "carId",
          "type": "uint256"
        }
      ],
      "name": "CheckOut",
      "type": "event"
    },
    {
      "anonymous": false,
      "inputs": [
        {
          "indexed": true,
          "internalType": "address",
          "name": "walletAddress",
          "type": "address"
        },
        {
          "indexed": false,
          "internalType": "uint256",
          "name": "amount",
          "type": "uint256"
        }
      ],
      "name": "Deposit",
      "type": "event"
    },
    {
      "anonymous": false,
      "inputs": [
        {
          "indexed": true,
          "internalType": "address",
          "name": "walletAddress",
          "type": "address"
        },
        {
          "indexed": false,
          "internalType": "uint256",
          "name": "amount",
          "type": "uint256"
        }
      ],
      "name": "PaymentMade",
      "type": "event"
    },
    {
      "anonymous": false,
      "inputs": [
        {
          "indexed": true,
          "internalType": "address",
          "name": "walletAddress",
          "type": "address"
        },
        {
          "indexed": false,
          "internalType": "string",
          "name": "name",
          "type": "string"
        },
        {
          "indexed": false,
          "internalType": "string",
          "name": "lastname",
          "type": "string"
        }
      ],
      "name": "UserAdded",
      "type": "event"
    },
    {
      "inputs": [
        {
          "internalType": "address",
          "name": "_newOwner",
          "type": "address"
        }
      ],
      "name": "setOwner",
      "outputs": [],
      "stateMutability": "nonpayable",
      "type": "function"
    },
    {
      "inputs": [
        {
          "internalType": "string",
          "name": "name",
          "type": "string"
        },
        {
          "internalType": "string",
          "name": "lastname",
          "type": "string"
        }
      ],
      "name": "addUser",
      "outputs": [],
      "stateMutability": "nonpayable",
      "type": "function"
    },
    {
      "inputs": [
        {
          "internalType": "string",
          "name": "name",
          "type": "string"
        },
        {
          "internalType": "string",
          "name": "url",
          "type": "string"
        },
        {
          "internalType": "uint256",
          "name": "rent",
          "type": "uint256"
        },
        {
          "internalType": "uint256",
          "name": "sale",
          "type": "uint256"
        }
      ],
      "name": "addCar",
      "outputs": [],
      "stateMutability": "nonpayable",
      "type": "function"
    },
    {
      "inputs": [
        {
          "internalType": "uint256",
          "name": "id",
          "type": "uint256"
        },
        {
          "internalType": "string",
          "name": "name",
          "type": "string"
        },
        {
          "internalType": "string",
          "name": "imgUrl",
          "type": "string"
        },
        {
          "internalType": "uint256",
          "name": "rentFee",
          "type": "uint256"
        },
        {
          "internalType": "uint256",
          "name": "saleFee",
          "type": "uint256"
        }
      ],
      "name": "editCarMetadata",
      "outputs": [],
      "stateMutability": "nonpayable",
      "type": "function"
    },
    {
      "inputs": [
        {
          "internalType": "uint256",
          "name": "id",
          "type": "uint256"
        },
        {
          "internalType": "enum RentalPlatform.Status",
          "name": "status",
          "type": "uint8"
        }
      ],
      "name": "editCarStatus",
      "outputs": [],
      "stateMutability": "nonpayable",
      "type": "function"
    },
    {
      "inputs": [
        {
          "internalType": "uint256",
          "name": "id",
          "type": "uint256"
        }
      ],
      "name": "checkOut",
      "outputs": [],
      "stateMutability": "nonpayable",
      "type": "function"
    },
    {
      "inputs": [],
      "name": "checkIn",
      "outputs": [],
      "stateMutability": "nonpayable",
      "type": "function"
    },
    {
      "inputs": [],
      "name": "deposit",
      "outputs": [],
      "stateMutability": "payable",
      "type": "function",
      "payable": true
    },
    {
      "inputs": [],
      "name": "makePayment",
      "outputs": [],
      "stateMutability": "nonpayable",
      "type": "function"
    },
    {
      "inputs": [
        {
          "internalType": "uint256",
          "name": "amount",
          "type": "uint256"
        }
      ],
      "name": "withdrawBalance",
      "outputs": [],
      "stateMutability": "nonpayable",
      "type": "function"
    },
    {
      "inputs": [
        {
          "internalType": "uint256",
          "name": "amount",
          "type": "uint256"
        }
      ],
      "name": "withdrawOwnerBalance",
      "outputs": [],
      "stateMutability": "nonpayable",
      "type": "function"
    },
    {
      "inputs": [],
      "name": "getOwner",
      "outputs": [
        {
          "internalType": "address",
          "name": "",
          "type": "address"
        }
      ],
      "stateMutability": "view",
      "type": "function",
      "constant": true
    },
    {
      "inputs": [
        {
          "internalType": "address",
          "name": "walletAddress",
          "type": "address"
        }
      ],
      "name": "getUser",
      "outputs": [
        {
          "components": [
            {
              "internalType": "address",
              "name": "walletAddress",
              "type": "address"
            },
            {
              "internalType": "string",
              "name": "name",
              "type": "string"
            },
            {
              "internalType": "string",
              "name": "lastname",
              "type": "string"
            },
            {
              "internalType": "uint256",
              "name": "rentedCarId",
              "type": "uint256"
            },
            {
              "internalType": "uint256",
              "name": "balance",
              "type": "uint256"
            },
            {
              "internalType": "uint256",
              "name": "debt",
              "type": "uint256"
            },
            {
              "internalType": "uint256",
              "name": "start",
              "type": "uint256"
            },
            {
              "internalType": "uint256",
              "name": "end",
              "type": "uint256"
            }
          ],
          "internalType": "struct RentalPlatform.User",
          "name": "",
          "type": "tuple"
        }
      ],
      "stateMutability": "view",
      "type": "function",
      "constant": true
    },
    {
      "inputs": [
        {
          "internalType": "uint256",
          "name": "id",
          "type": "uint256"
        }
      ],
      "name": "getCar",
      "outputs": [
        {
          "components": [
            {
              "internalType": "uint256",
              "name": "id",
              "type": "uint256"
            },
            {
              "internalType": "string",
              "name": "name",
              "type": "string"
            },
            {
              "internalType": "string",
              "name": "imgUrl",
              "type": "string"
            },
            {
              "internalType": "enum RentalPlatform.Status",
              "name": "status",
              "type": "uint8"
            },
            {
              "internalType": "uint256",
              "name": "rentFee",
              "type": "uint256"
            },
            {
              "internalType": "uint256",
              "name": "saleFee",
              "type": "uint256"
            }
          ],
          "internalType": "struct RentalPlatform.Car",
          "name": "",
          "type": "tuple"
        }
      ],
      "stateMutability": "view",
      "type": "function",
      "constant": true
    },
    {
      "inputs": [
        {
          "internalType": "enum RentalPlatform.Status",
          "name": "_status",
          "type": "uint8"
        }
      ],
      "name": "getCarsByStatus",
      "outputs": [
        {
          "components": [
            {
              "internalType": "uint256",
              "name": "id",
              "type": "uint256"
            },
            {
              "internalType": "string",
              "name": "name",
              "type": "string"
            },
            {
              "internalType": "string",
              "name": "imgUrl",
              "type": "string"
            },
            {
              "internalType": "enum RentalPlatform.Status",
              "name": "status",
              "type": "uint8"
            },
            {
              "internalType": "uint256",
              "name": "rentFee",
              "type": "uint256"
            },
            {
              "internalType": "uint256",
              "name": "saleFee",
              "type": "uint256"
            }
          ],
          "internalType": "struct RentalPlatform.Car[]",
          "name": "",
          "type": "tuple[]"
        }
      ],
      "stateMutability": "view",
      "type": "function",
      "constant": true
    },
    {
      "inputs": [],
      "name": "getCurrentCount",
      "outputs": [
        {
          "internalType": "uint256",
          "name": "",
          "type": "uint256"
        }
      ],
      "stateMutability": "view",
      "type": "function",
      "constant": true
    },
    {
      "inputs": [],
      "name": "getContractBalance",
      "outputs": [
        {
          "internalType": "uint256",
          "name": "",
          "type": "uint256"
        }
      ],
      "stateMutability": "view",
      "type": "function",
      "constant": true
    },
    {
      "inputs": [],
      "name": "getTotalPayments",
      "outputs": [
        {
          "internalType": "uint256",
          "name": "",
          "type": "uint256"
        }
      ],
      "stateMutability": "view",
      "type": "function",
      "constant": true
    }
  ],
  "bytecode": "0x608060405234801561000f575f80fd5b5060015f819055503360025f6101000a81548173ffffffffffffffffffffffffffffffffffffffff021916908373ffffffffffffffffffffffffffffffffffffffff1602179055505f600381905550613adf8061006b5f395ff3fe608060405260043610610108575f3560e01c8063708f29a611610094578063d0e30db011610063578063d0e30db014610344578063d8546f491461034e578063d8d7970014610376578063da76d5cd1461038c578063dd51babf146103b457610108565b8063708f29a61461028c578063893d20e8146102b65780639a43da73146102e0578063ba38ccf61461030857610108565b80633c69c657116100db5780633c69c6571461019a5780634865bed2146101c25780635e8be190146101ea5780636f77926b146102265780636f9fb98a1461026257610108565b8063079eaf341461010c57806313af403514610134578063183ff0851461015c5780631bd2eeee14610172575b5f80fd5b348015610117575f80fd5b50610132600480360381019061012d919061256c565b6103de565b005b34801561013f575f80fd5b5061015a60048036038101906101559190612644565b6106b3565b005b348015610167575f80fd5b50610170610785565b005b34801561017d575f80fd5b50610198600480360381019061019391906126a2565b610a6d565b005b3480156101a5575f80fd5b506101c060048036038101906101bb91906126a2565b610d4c565b005b3480156101cd575f80fd5b506101e860048036038101906101e391906126cd565b610f74565b005b3480156101f5575f80fd5b50610210600480360381019061020b91906126a2565b6111ff565b60405161021d9190612909565b60405180910390f35b348015610231575f80fd5b5061024c60048036038101906102479190612644565b6113f6565b60405161025991906129ec565b60405180910390f35b34801561026d575f80fd5b5061027661163c565b6040516102839190612a1b565b60405180910390f35b348015610297575f80fd5b506102a06116d2565b6040516102ad9190612a1b565b60405180910390f35b3480156102c1575f80fd5b506102ca61176a565b6040516102d79190612a43565b60405180910390f35b3480156102eb575f80fd5b5061030660048036038101906103019190612a7f565b611792565b005b348015610313575f80fd5b5061032e60048036038101906103299190612abd565b6118ed565b60405161033b9190612c30565b60405180910390f35b61034c611c09565b005b348015610359575f80fd5b50610374600480360381019061036f9190612c50565b611cf7565b005b348015610381575f80fd5b5061038a611ea7565b005b348015610397575f80fd5b506103b260048036038101906103ad91906126a2565b6120f8565b005b3480156103bf575f80fd5b506103c8612328565b6040516103d59190612a1b565b60405180910390f35b6103e733612338565b15610427576040517f08c379a000000000000000000000000000000000000000000000000000000000815260040161041e90612d61565b60405180910390fd5b6040518061010001604052803373ffffffffffffffffffffffffffffffffffffffff16815260200185858080601f0160208091040260200160405190810160405280939291908181526020018383808284375f81840152601f19601f82011690508083019250505050505050815260200183838080601f0160208091040260200160405190810160405280939291908181526020018383808284375f81840152601f19601f8201169050808301925050505050505081526020015f81526020015f81526020015f81526020015f81526020015f81525060045f3373ffffffffffffffffffffffffffffffffffffffff1673ffffffffffffffffffffffffffffffffffffffff1681526020019081526020015f205f820151815f015f6101000a81548173ffffffffffffffffffffffffffffffffffffffff021916908373ffffffffffffffffffffffffffffffffffffffff16021790555060208201518160010190816105939190612fa6565b5060408201518160020190816105a99190612fa6565b50606082015181600301556080820151816004015560a0820151816005015560c0820151816006015560e082015181600701559050503373ffffffffffffffffffffffffffffffffffffffff167f8eab1db142a914aff8b515eedb9177bd7effaef6d714c41e30bdf1520677860760045f3373ffffffffffffffffffffffffffffffffffffffff1673ffffffffffffffffffffffffffffffffffffffff1681526020019081526020015f2060010160045f3373ffffffffffffffffffffffffffffffffffffffff1673ffffffffffffffffffffffffffffffffffffffff1681526020019081526020015f206002016040516106a59291906130f6565b60405180910390a250505050565b60025f9054906101000a900473ffffffffffffffffffffffffffffffffffffffff1673ffffffffffffffffffffffffffffffffffffffff163373ffffffffffffffffffffffffffffffffffffffff1614610742576040517f08c379a00000000000000000000000000000000000000000000000000000000081526004016107399061319b565b60405180910390fd5b8060025f6101000a81548173ffffffffffffffffffffffffffffffffffffffff021916908373ffffffffffffffffffffffffffffffffffffffff16021790555050565b61078e33612338565b6107cd576040517f08c379a00000000000000000000000000000000000000000000000000000000081526004016107c490613203565b60405180910390fd5b5f60045f3373ffffffffffffffffffffffffffffffffffffffff1673ffffffffffffffffffffffffffffffffffffffff1681526020019081526020015f206003015490505f8103610853576040517f08c379a000000000000000000000000000000000000000000000000000000000815260040161084a9061326b565b60405180910390fd5b5f60045f3373ffffffffffffffffffffffffffffffffffffffff1673ffffffffffffffffffffffffffffffffffffffff1681526020019081526020015f2060060154426108a091906132b6565b90505f60055f8481526020019081526020015f206004015490506108c482826123ce565b60045f3373ffffffffffffffffffffffffffffffffffffffff1673ffffffffffffffffffffffffffffffffffffffff1681526020019081526020015f206005015f82825461091291906132e9565b925050819055505f60045f3373ffffffffffffffffffffffffffffffffffffffff1673ffffffffffffffffffffffffffffffffffffffff1681526020019081526020015f20600301819055505f60045f3373ffffffffffffffffffffffffffffffffffffffff1673ffffffffffffffffffffffffffffffffffffffff1681526020019081526020015f20600601819055505f60045f3373ffffffffffffffffffffffffffffffffffffffff1673ffffffffffffffffffffffffffffffffffffffff1681526020019081526020015f2060070181905550600260055f8581526020019081526020015f206003015f6101000a81548160ff02191690836002811115610a1f57610a1e612809565b5b0217905550823373ffffffffffffffffffffffffffffffffffffffff167fa864a8b988e604bb05d6ce75d53efabb5620c45b15380b7bd0c51dcfa71dda0360405160405180910390a3505050565b610a7633612338565b610ab5576040517f08c379a0000000000000000000000000000000000000000000000000000000008152600401610aac90613203565b60405180910390fd5b600280811115610ac857610ac7612809565b5b60055f8381526020019081526020015f206003015f9054906101000a900460ff166002811115610afb57610afa612809565b5b14610b3b576040517f08c379a0000000000000000000000000000000000000000000000000000000008152600401610b3290613366565b60405180910390fd5b5f60045f3373ffffffffffffffffffffffffffffffffffffffff1673ffffffffffffffffffffffffffffffffffffffff1681526020019081526020015f206003015414610bbd576040517f08c379a0000000000000000000000000000000000000000000000000000000008152600401610bb4906133ce565b60405180910390fd5b5f60045f3373ffffffffffffffffffffffffffffffffffffffff1673ffffffffffffffffffffffffffffffffffffffff1681526020019081526020015f206005015414610c3f576040517f08c379a0000000000000000000000000000000000000000000000000000000008152600401610c3690613436565b60405180910390fd5b4260045f3373ffffffffffffffffffffffffffffffffffffffff1673ffffffffffffffffffffffffffffffffffffffff1681526020019081526020015f20600601819055508060045f3373ffffffffffffffffffffffffffffffffffffffff1673ffffffffffffffffffffffffffffffffffffffff1681526020019081526020015f2060030181905550600160055f8381526020019081526020015f206003015f6101000a81548160ff02191690836002811115610d0057610cff612809565b5b0217905550803373ffffffffffffffffffffffffffffffffffffffff167ff65ce03794824579bcd95d8c6743ffc10c4a5e7405fb3876c1abf81453105c4260405160405180910390a350565b60025f9054906101000a900473ffffffffffffffffffffffffffffffffffffffff1673ffffffffffffffffffffffffffffffffffffffff163373ffffffffffffffffffffffffffffffffffffffff1614610ddb576040517f08c379a0000000000000000000000000000000000000000000000000000000008152600401610dd29061319b565b60405180910390fd5b806003541015610e20576040517f08c379a0000000000000000000000000000000000000000000000000000000008152600401610e17906134c4565b60405180910390fd5b5f60025f9054906101000a900473ffffffffffffffffffffffffffffffffffffffff1673ffffffffffffffffffffffffffffffffffffffff1682604051610e669061350f565b5f6040518083038185875af1925050503d805f8114610ea0576040519150601f19603f3d011682016040523d82523d5f602084013e610ea5565b606091505b5050905080610ee9576040517f08c379a0000000000000000000000000000000000000000000000000000000008152600401610ee09061356d565b60405180910390fd5b8160035f828254610efa91906132b6565b9250508190555060025f9054906101000a900473ffffffffffffffffffffffffffffffffffffffff1673ffffffffffffffffffffffffffffffffffffffff167fddc398b321237a8d40ac914388309c2f52a08c134e4dc4ce61e32f57cb7d80f183604051610f689190612a1b565b60405180910390a25050565b60025f9054906101000a900473ffffffffffffffffffffffffffffffffffffffff1673ffffffffffffffffffffffffffffffffffffffff163373ffffffffffffffffffffffffffffffffffffffff1614611003576040517f08c379a0000000000000000000000000000000000000000000000000000000008152600401610ffa9061319b565b60405180910390fd5b61100d60016123f4565b5f6110186001612408565b90506040518060c0016040528082815260200188888080601f0160208091040260200160405190810160405280939291908181526020018383808284375f81840152601f19601f82011690508083019250505050505050815260200186868080601f0160208091040260200160405190810160405280939291908181526020018383808284375f81840152601f19601f8201169050808301925050505050505081526020016002808111156110d0576110cf612809565b5b81526020018481526020018381525060055f8381526020019081526020015f205f820151815f0155602082015181600101908161110d9190612fa6565b5060408201518160020190816111239190612fa6565b506060820151816003015f6101000a81548160ff0219169083600281111561114e5761114d612809565b5b02179055506080820151816004015560a08201518160050155905050807f1d26cfb076fd58c1fa5695bb34e5556995a0aa34ecc601438f9957d6a71439a360055f8481526020019081526020015f2060010160055f8581526020019081526020015f2060020160055f8681526020019081526020015f206004015460055f8781526020019081526020015f20600501546040516111ee949392919061358b565b60405180910390a250505050505050565b61120761246a565b5f60055f8481526020019081526020015f205f01540361125c576040517f08c379a000000000000000000000000000000000000000000000000000000000815260040161125390613626565b60405180910390fd5b60055f8381526020019081526020015f206040518060c00160405290815f820154815260200160018201805461129190612dd9565b80601f01602080910402602001604051908101604052809291908181526020018280546112bd90612dd9565b80156113085780601f106112df57610100808354040283529160200191611308565b820191905f5260205f20905b8154815290600101906020018083116112eb57829003601f168201915b5050505050815260200160028201805461132190612dd9565b80601f016020809104026020016040519081016040528092919081815260200182805461134d90612dd9565b80156113985780601f1061136f57610100808354040283529160200191611398565b820191905f5260205f20905b81548152906001019060200180831161137b57829003601f168201915b50505050508152602001600382015f9054906101000a900460ff1660028111156113c5576113c4612809565b5b60028111156113d7576113d6612809565b5b8152602001600482015481526020016005820154815250509050919050565b6113fe6124ae565b61140782612338565b611446576040517f08c379a000000000000000000000000000000000000000000000000000000000815260040161143d90613203565b60405180910390fd5b60045f8373ffffffffffffffffffffffffffffffffffffffff1673ffffffffffffffffffffffffffffffffffffffff1681526020019081526020015f20604051806101000160405290815f82015f9054906101000a900473ffffffffffffffffffffffffffffffffffffffff1673ffffffffffffffffffffffffffffffffffffffff1673ffffffffffffffffffffffffffffffffffffffff1681526020016001820180546114f390612dd9565b80601f016020809104026020016040519081016040528092919081815260200182805461151f90612dd9565b801561156a5780601f106115415761010080835404028352916020019161156a565b820191905f5260205f20905b81548152906001019060200180831161154d57829003601f168201915b5050505050815260200160028201805461158390612dd9565b80601f01602080910402602001604051908101604052809291908181526020018280546115af90612dd9565b80156115fa5780601f106115d1576101008083540402835291602001916115fa565b820191905f5260205f20905b8154815290600101906020018083116115dd57829003601f168201915b50505050508152602001600382015481526020016004820154815260200160058201548152602001600682015481526020016007820154815250509050919050565b5f60025f9054906101000a900473ffffffffffffffffffffffffffffffffffffffff1673ffffffffffffffffffffffffffffffffffffffff163373ffffffffffffffffffffffffffffffffffffffff16146116cc576040517f08c379a00000000000000000000000000000000000000000000000000000000081526004016116c39061319b565b60405180910390fd5b47905090565b5f60025f9054906101000a900473ffffffffffffffffffffffffffffffffffffffff1673ffffffffffffffffffffffffffffffffffffffff163373ffffffffffffffffffffffffffffffffffffffff1614611762576040517f08c379a00000000000000000000000000000000000000000000000000000000081526004016117599061319b565b60405180910390fd5b600354905090565b5f60025f9054906101000a900473ffffffffffffffffffffffffffffffffffffffff16905090565b60025f9054906101000a900473ffffffffffffffffffffffffffffffffffffffff1673ffffffffffffffffffffffffffffffffffffffff163373ffffffffffffffffffffffffffffffffffffffff1614611821576040517f08c379a00000000000000000000000000000000000000000000000000000000081526004016118189061319b565b60405180910390fd5b5f60055f8481526020019081526020015f205f015403611876576040517f08c379a000000000000000000000000000000000000000000000000000000000815260040161186d906136b4565b60405180910390fd5b8060055f8481526020019081526020015f206003015f6101000a81548160ff021916908360028111156118ac576118ab612809565b5b0217905550817fa2038badc9c4004a10f632052c54b0011bb307c2cadc65f22071f61ffd106633826040516118e191906136e1565b60405180910390a25050565b60605f806118fb6001612408565b90505f600190505b8181116119775784600281111561191d5761191c612809565b5b60055f8381526020019081526020015f206003015f9054906101000a900460ff1660028111156119505761194f612809565b5b03611964578280611960906136fa565b9350505b808061196f906136fa565b915050611903565b505f8267ffffffffffffffff81111561199357611992612d7f565b5b6040519080825280602002602001820160405280156119cc57816020015b6119b961246a565b8152602001906001900390816119b15790505b5090505f92505f600190505b828111611bfd578560028111156119f2576119f1612809565b5b60055f8381526020019081526020015f206003015f9054906101000a900460ff166002811115611a2557611a24612809565b5b03611bea5760055f8281526020019081526020015f206040518060c00160405290815f8201548152602001600182018054611a5f90612dd9565b80601f0160208091040260200160405190810160405280929190818152602001828054611a8b90612dd9565b8015611ad65780601f10611aad57610100808354040283529160200191611ad6565b820191905f5260205f20905b815481529060010190602001808311611ab957829003601f168201915b50505050508152602001600282018054611aef90612dd9565b80601f0160208091040260200160405190810160405280929190818152602001828054611b1b90612dd9565b8015611b665780601f10611b3d57610100808354040283529160200191611b66565b820191905f5260205f20905b815481529060010190602001808311611b4957829003601f168201915b50505050508152602001600382015f9054906101000a900460ff166002811115611b9357611b92612809565b5b6002811115611ba557611ba4612809565b5b815260200160048201548152602001600582015481525050828581518110611bd057611bcf613741565b5b60200260200101819052508380611be6906136fa565b9450505b8080611bf5906136fa565b9150506119d8565b50809350505050919050565b611c1233612338565b611c51576040517f08c379a0000000000000000000000000000000000000000000000000000000008152600401611c4890613203565b60405180910390fd5b3460045f3373ffffffffffffffffffffffffffffffffffffffff1673ffffffffffffffffffffffffffffffffffffffff1681526020019081526020015f206004015f828254611ca091906132e9565b925050819055503373ffffffffffffffffffffffffffffffffffffffff167fe1fffcc4923d04b559f4d29a8bfc6cda04eb5b0d3c460751c2402c5c5cc9109c34604051611ced9190612a1b565b60405180910390a2565b60025f9054906101000a900473ffffffffffffffffffffffffffffffffffffffff1673ffffffffffffffffffffffffffffffffffffffff163373ffffffffffffffffffffffffffffffffffffffff1614611d86576040517f08c379a0000000000000000000000000000000000000000000000000000000008152600401611d7d9061319b565b60405180910390fd5b5f60055f8981526020019081526020015f205f015403611ddb576040517f08c379a0000000000000000000000000000000000000000000000000000000008152600401611dd2906136b4565b60405180910390fd5b5f60055f8981526020019081526020015f2090505f8787905014611e0e578686826001019182611e0c929190613778565b505b5f8585905014611e2d578484826002019182611e2b929190613778565b505b5f831115611e3f578281600401819055505b5f821115611e51578181600501819055505b877f10e3e3a462a9f4c167783d47719e646c87b1a773b083fb5eef04a076e887079c826001018360020184600401548560050154604051611e95949392919061358b565b60405180910390a25050505050505050565b611eb033612338565b611eef576040517f08c379a0000000000000000000000000000000000000000000000000000000008152600401611ee690613203565b60405180910390fd5b5f60045f3373ffffffffffffffffffffffffffffffffffffffff1673ffffffffffffffffffffffffffffffffffffffff1681526020019081526020015f206005015490505f60045f3373ffffffffffffffffffffffffffffffffffffffff1673ffffffffffffffffffffffffffffffffffffffff1681526020019081526020015f206004015490505f8211611fb9576040517f08c379a0000000000000000000000000000000000000000000000000000000008152600401611fb09061388f565b60405180910390fd5b81811015611ffc576040517f08c379a0000000000000000000000000000000000000000000000000000000008152600401611ff3906138f7565b60405180910390fd5b8160045f3373ffffffffffffffffffffffffffffffffffffffff1673ffffffffffffffffffffffffffffffffffffffff1681526020019081526020015f206004015f82825403925050819055508160035f82825461205a91906132e9565b925050819055505f60045f3373ffffffffffffffffffffffffffffffffffffffff1673ffffffffffffffffffffffffffffffffffffffff1681526020019081526020015f20600501819055503373ffffffffffffffffffffffffffffffffffffffff167f3a2d0e41c506b136330c6e5e0295ccbf0966daece99bfe7c89020cc01dbfb8d6836040516120ec9190612a1b565b60405180910390a25050565b612100612414565b61210933612338565b612148576040517f08c379a000000000000000000000000000000000000000000000000000000000815260040161213f90613203565b60405180910390fd5b5f60045f3373ffffffffffffffffffffffffffffffffffffffff1673ffffffffffffffffffffffffffffffffffffffff1681526020019081526020015f20600401549050818110156121cf576040517f08c379a00000000000000000000000000000000000000000000000000000000081526004016121c690613985565b60405180910390fd5b8160045f3373ffffffffffffffffffffffffffffffffffffffff1673ffffffffffffffffffffffffffffffffffffffff1681526020019081526020015f206004015f82825461221e91906132b6565b925050819055505f3373ffffffffffffffffffffffffffffffffffffffff168360405161224a9061350f565b5f6040518083038185875af1925050503d805f8114612284576040519150601f19603f3d011682016040523d82523d5f602084013e612289565b606091505b50509050806122cd576040517f08c379a00000000000000000000000000000000000000000000000000000000081526004016122c49061356d565b60405180910390fd5b3373ffffffffffffffffffffffffffffffffffffffff167fddc398b321237a8d40ac914388309c2f52a08c134e4dc4ce61e32f57cb7d80f1846040516123139190612a1b565b60405180910390a25050612325612461565b50565b5f6123336001612408565b905090565b5f8073ffffffffffffffffffffffffffffffffffffffff1660045f8473ffffffffffffffffffffffffffffffffffffffff1673ffffffffffffffffffffffffffffffffffffffff1681526020019081526020015f205f015f9054906101000a900473ffffffffffffffffffffffffffffffffffffffff1673ffffffffffffffffffffffffffffffffffffffff1614159050919050565b5f80603c846123dd91906139d0565b905082816123eb9190613a00565b91505092915050565b6001815f015f828254019250508190555050565b5f815f01549050919050565b60025f5403612458576040517f08c379a000000000000000000000000000000000000000000000000000000000815260040161244f90613a8b565b60405180910390fd5b60025f81905550565b60015f81905550565b6040518060c001604052805f815260200160608152602001606081526020015f600281111561249c5761249b612809565b5b81526020015f81526020015f81525090565b6040518061010001604052805f73ffffffffffffffffffffffffffffffffffffffff16815260200160608152602001606081526020015f81526020015f81526020015f81526020015f81526020015f81525090565b5f80fd5b5f80fd5b5f80fd5b5f80fd5b5f80fd5b5f8083601f84011261252c5761252b61250b565b5b8235905067ffffffffffffffff8111156125495761254861250f565b5b60208301915083600182028301111561256557612564612513565b5b9250929050565b5f805f806040858703121561258457612583612503565b5b5f85013567ffffffffffffffff8111156125a1576125a0612507565b5b6125ad87828801612517565b9450945050602085013567ffffffffffffffff8111156125d0576125cf612507565b5b6125dc87828801612517565b925092505092959194509250565b5f73ffffffffffffffffffffffffffffffffffffffff82169050919050565b5f612613826125ea565b9050919050565b61262381612609565b811461262d575f80fd5b50565b5f8135905061263e8161261a565b92915050565b5f6020828403121561265957612658612503565b5b5f61266684828501612630565b91505092915050565b5f819050919050565b6126818161266f565b811461268b575f80fd5b50565b5f8135905061269c81612678565b92915050565b5f602082840312156126b7576126b6612503565b5b5f6126c48482850161268e565b91505092915050565b5f805f805f80608087890312156126e7576126e6612503565b5b5f87013567ffffffffffffffff81111561270457612703612507565b5b61271089828a01612517565b9650965050602087013567ffffffffffffffff81111561273357612732612507565b5b61273f89828a01612517565b9450945050604061275289828a0161268e565b925050606061276389828a0161268e565b9150509295509295509295565b6127798161266f565b82525050565b5f81519050919050565b5f82825260208201905092915050565b5f5b838110156127b657808201518184015260208101905061279b565b5f8484015250505050565b5f601f19601f8301169050919050565b5f6127db8261277f565b6127e58185612789565b93506127f5818560208601612799565b6127fe816127c1565b840191505092915050565b7f4e487b71000000000000000000000000000000000000000000000000000000005f52602160045260245ffd5b6003811061284757612846612809565b5b50565b5f81905061285782612836565b919050565b5f6128668261284a565b9050919050565b6128768161285c565b82525050565b5f60c083015f8301516128915f860182612770565b50602083015184820360208601526128a982826127d1565b915050604083015184820360408601526128c382826127d1565b91505060608301516128d8606086018261286d565b5060808301516128eb6080860182612770565b5060a08301516128fe60a0860182612770565b508091505092915050565b5f6020820190508181035f830152612921818461287c565b905092915050565b61293281612609565b82525050565b5f61010083015f83015161294e5f860182612929565b506020830151848203602086015261296682826127d1565b9150506040830151848203604086015261298082826127d1565b91505060608301516129956060860182612770565b5060808301516129a86080860182612770565b5060a08301516129bb60a0860182612770565b5060c08301516129ce60c0860182612770565b5060e08301516129e160e0860182612770565b508091505092915050565b5f6020820190508181035f830152612a048184612938565b905092915050565b612a158161266f565b82525050565b5f602082019050612a2e5f830184612a0c565b92915050565b612a3d81612609565b82525050565b5f602082019050612a565f830184612a34565b92915050565b60038110612a68575f80fd5b50565b5f81359050612a7981612a5c565b92915050565b5f8060408385031215612a9557612a94612503565b5b5f612aa28582860161268e565b9250506020612ab385828601612a6b565b9150509250929050565b5f60208284031215612ad257612ad1612503565b5b5f612adf84828501612a6b565b91505092915050565b5f81519050919050565b5f82825260208201905092915050565b5f819050602082019050919050565b5f60c083015f830151612b265f860182612770565b5060208301518482036020860152612b3e82826127d1565b91505060408301518482036040860152612b5882826127d1565b9150506060830151612b6d606086018261286d565b506080830151612b806080860182612770565b5060a0830151612b9360a0860182612770565b508091505092915050565b5f612ba98383612b11565b905092915050565b5f602082019050919050565b5f612bc782612ae8565b612bd18185612af2565b935083602082028501612be385612b02565b805f5b85811015612c1e5784840389528151612bff8582612b9e565b9450612c0a83612bb1565b925060208a01995050600181019050612be6565b50829750879550505050505092915050565b5f6020820190508181035f830152612c488184612bbd565b905092915050565b5f805f805f805f60a0888a031215612c6b57612c6a612503565b5b5f612c788a828b0161268e565b975050602088013567ffffffffffffffff811115612c9957612c98612507565b5b612ca58a828b01612517565b9650965050604088013567ffffffffffffffff811115612cc857612cc7612507565b5b612cd48a828b01612517565b94509450506060612ce78a828b0161268e565b9250506080612cf88a828b0161268e565b91505092959891949750929550565b5f82825260208201905092915050565b7f5573657220616c726561647920657869737473210000000000000000000000005f82015250565b5f612d4b601483612d07565b9150612d5682612d17565b602082019050919050565b5f6020820190508181035f830152612d7881612d3f565b9050919050565b7f4e487b71000000000000000000000000000000000000000000000000000000005f52604160045260245ffd5b7f4e487b71000000000000000000000000000000000000000000000000000000005f52602260045260245ffd5b5f6002820490506001821680612df057607f821691505b602082108103612e0357612e02612dac565b5b50919050565b5f819050815f5260205f209050919050565b5f6020601f8301049050919050565b5f82821b905092915050565b5f60088302612e657fffffffffffffffffffffffffffffffffffffffffffffffffffffffffffffffff82612e2a565b612e6f8683612e2a565b95508019841693508086168417925050509392505050565b5f819050919050565b5f612eaa612ea5612ea08461266f565b612e87565b61266f565b9050919050565b5f819050919050565b612ec383612e90565b612ed7612ecf82612eb1565b848454612e36565b825550505050565b5f90565b612eeb612edf565b612ef6818484612eba565b505050565b5b81811015612f1957612f0e5f82612ee3565b600181019050612efc565b5050565b601f821115612f5e57612f2f81612e09565b612f3884612e1b565b81016020851015612f47578190505b612f5b612f5385612e1b565b830182612efb565b50505b505050565b5f82821c905092915050565b5f612f7e5f1984600802612f63565b1980831691505092915050565b5f612f968383612f6f565b9150826002028217905092915050565b612faf8261277f565b67ffffffffffffffff811115612fc857612fc7612d7f565b5b612fd28254612dd9565b612fdd828285612f1d565b5f60209050601f83116001811461300e575f8415612ffc578287015190505b6130068582612f8b565b86555061306d565b601f19841661301c86612e09565b5f5b828110156130435784890151825560018201915060208501945060208101905061301e565b86831015613060578489015161305c601f891682612f6f565b8355505b6001600288020188555050505b505050505050565b5f815461308181612dd9565b61308b8186612d07565b9450600182165f81146130a557600181146130bb576130ed565b60ff1983168652811515602002860193506130ed565b6130c485612e09565b5f5b838110156130e5578154818901526001820191506020810190506130c6565b808801955050505b50505092915050565b5f6040820190508181035f83015261310e8185613075565b905081810360208301526131228184613075565b90509392505050565b7f4f6e6c7920746865206f776e65722063616e2063616c6c20746869732066756e5f8201527f6374696f6e000000000000000000000000000000000000000000000000000000602082015250565b5f613185602583612d07565b91506131908261312b565b604082019050919050565b5f6020820190508181035f8301526131b281613179565b9050919050565b7f5573657220646f6573206e6f74206578697374210000000000000000000000005f82015250565b5f6131ed601483612d07565b91506131f8826131b9565b602082019050919050565b5f6020820190508181035f83015261321a816131e1565b9050919050565b7f5573657220686173206e6f742072656e746564206120636172210000000000005f82015250565b5f613255601a83612d07565b915061326082613221565b602082019050919050565b5f6020820190508181035f83015261328281613249565b9050919050565b7f4e487b71000000000000000000000000000000000000000000000000000000005f52601160045260245ffd5b5f6132c08261266f565b91506132cb8361266f565b92508282039050818111156132e3576132e2613289565b5b92915050565b5f6132f38261266f565b91506132fe8361266f565b925082820190508082111561331657613315613289565b5b92915050565b7f436172206973206e6f7420617661696c61626c6520666f722072656e742100005f82015250565b5f613350601e83612d07565b915061335b8261331c565b602082019050919050565b5f6020820190508181035f83015261337d81613344565b9050919050565b7f557365722068617320616c72656164792072656e7465642061206361722100005f82015250565b5f6133b8601e83612d07565b91506133c382613384565b602082019050919050565b5f6020820190508181035f8301526133e5816133ac565b9050919050565b7f557365722068617320616e206f75747374616e64696e672064656274210000005f82015250565b5f613420601d83612d07565b915061342b826133ec565b602082019050919050565b5f6020820190508181035f83015261344d81613414565b9050919050565b7f496e73756666696369656e7420636f6e74726163742062616c616e636520746f5f8201527f2077697468647261772100000000000000000000000000000000000000000000602082015250565b5f6134ae602a83612d07565b91506134b982613454565b604082019050919050565b5f6020820190508181035f8301526134db816134a2565b9050919050565b5f81905092915050565b50565b5f6134fa5f836134e2565b9150613505826134ec565b5f82019050919050565b5f613519826134ef565b9150819050919050565b7f5472616e73666572206661696c65642e000000000000000000000000000000005f82015250565b5f613557601083612d07565b915061356282613523565b602082019050919050565b5f6020820190508181035f8301526135848161354b565b9050919050565b5f6080820190508181035f8301526135a38187613075565b905081810360208301526135b78186613075565b90506135c66040830185612a0c565b6135d36060830184612a0c565b95945050505050565b7f43617220646f6573206e6f7420657869737421000000000000000000000000005f82015250565b5f613610601383612d07565b915061361b826135dc565b602082019050919050565b5f6020820190508181035f83015261363d81613604565b9050919050565b7f436172207769746820676976656e20494420646f6573206e6f742065786973745f8201527f2e00000000000000000000000000000000000000000000000000000000000000602082015250565b5f61369e602183612d07565b91506136a982613644565b604082019050919050565b5f6020820190508181035f8301526136cb81613692565b9050919050565b6136db8161285c565b82525050565b5f6020820190506136f45f8301846136d2565b92915050565b5f6137048261266f565b91507fffffffffffffffffffffffffffffffffffffffffffffffffffffffffffffffff820361373657613735613289565b5b600182019050919050565b7f4e487b71000000000000000000000000000000000000000000000000000000005f52603260045260245ffd5b5f82905092915050565b613782838361376e565b67ffffffffffffffff81111561379b5761379a612d7f565b5b6137a58254612dd9565b6137b0828285612f1d565b5f601f8311600181146137dd575f84156137cb578287013590505b6137d58582612f8b565b86555061383c565b601f1984166137eb86612e09565b5f5b82811015613812578489013582556001820191506020850194506020810190506137ed565b8683101561382f578489013561382b601f891682612f6f565b8355505b6001600288020188555050505b50505050505050565b7f5573657220686173206e6f2064656274210000000000000000000000000000005f82015250565b5f613879601183612d07565b915061388482613845565b602082019050919050565b5f6020820190508181035f8301526138a68161386d565b9050919050565b7f557365722068617320696e73756666696369656e742062616c616e63652100005f82015250565b5f6138e1601e83612d07565b91506138ec826138ad565b602082019050919050565b5f6020820190508181035f83015261390e816138d5565b9050919050565b7f496e73756666696369656e742062616c616e636520746f2077697468647261775f8201527f2100000000000000000000000000000000000000000000000000000000000000602082015250565b5f61396f602183612d07565b915061397a82613915565b604082019050919050565b5f6020820190508181035f83015261399c81613963565b9050919050565b7f4e487b71000000000000000000000000000000000000000000000000000000005f52601260045260245ffd5b5f6139da8261266f565b91506139e58361266f565b9250826139f5576139f46139a3565b5b828204905092915050565b5f613a0a8261266f565b9150613a158361266f565b9250828202613a238161266f565b91508282048414831517613a3a57613a39613289565b5b5092915050565b7f5265656e7472616e637947756172643a207265656e7472616e742063616c6c005f82015250565b5f613a75601f83612d07565b9150613a8082613a41565b602082019050919050565b5f6020820190508181035f830152613aa281613a69565b905091905056fea2646970667358221220ba717b034e353eab6159f029cebe5e44e7f8996b1dbb4375797f3c8e3e0200fb64736f6c63430008150033",
  "immutableReferences": {},
  "source": "// SPDX-License-Identifier: MIT\npragma solidity ^0.8.7;\nimport \"@openzeppelin/contracts/utils/Counters.sol\";\nimport \"@openzeppelin/contracts/security/ReentrancyGuard.sol\";\n\ncontract RentalPlatform is ReentrancyGuard {\n  using Counters for Counters.Counter;\n  Counters.Counter private _counter;\n\n  // DATA\n  //owner\n  address private owner;\n\n  //total payment made to the contract\n  uint private totalPayments;\n\n  // user struct\n  struct User {\n    address walletAddress;\n    string name;\n    string lastname;\n    uint rentedCarId;\n    uint balance;\n    uint debt;\n    uint start;\n    uint end;\n  }\n\n  // car struct\n  struct Car {\n    uint id;\n    string name;\n    string imgUrl;\n    Status status;\n    uint rentFee;\n    uint saleFee;\n  }\n\n  // enum to indicate the status of the car\n  enum Status { Retired, InUse, Available }\n\n  // events\n  event CarAdded(uint indexed id, string name, string imgUrl, uint rentFee, uint saleFee);\n  event CarMetadataEdited(uint indexed id, string name, string imgUrl, uint rentFee, uint saleFee);\n  event CarStatusEdited(uint indexed id, Status status);\n  event UserAdded(address indexed walletAddress, string name, string lastname);\n  event Deposit(address indexed walletAddress, uint amount);\n  event CheckOut(address indexed walletAddress, uint indexed carId);\n  event CheckIn(address indexed walletAddress, uint indexed carId);\n  event PaymentMade(address indexed walletAddress, uint amount);\n  event BalanceWithdrawn(address indexed walletAddress, uint amount);\n\n\n  // users mapping\n  mapping(address => User) private users;\n\n  // cars mapping\n  mapping(uint => Car) private cars;\n\n  //constructor\n  constructor() {\n    owner = msg.sender;\n    totalPayments = 0;\n  }\n\n  //MODIFIERS\n  //onlyOwner\n  modifier onlyOwner() {\n    require(msg.sender == owner, \"Only the owner can call this function\");\n    _;\n  }\n\n  //FUNCTIONS\n  //Execute Functions\n\n  //setOwner #onlyOwner\n  function setOwner(address _newOwner) external onlyOwner {\n    owner = _newOwner;\n  }\n\n  //addUser #nonExisting\n  function addUser(string calldata name, string calldata lastname) external {\n    require(!isUser(msg.sender), \"User already exists!\");\n    users[msg.sender] = User(msg.sender, name, lastname, 0, 0, 0, 0, 0);\n\n    emit UserAdded(msg.sender, users[msg.sender].name, users[msg.sender].lastname);\n  }\n\n  //addCar #onlyOwner #nonExistingCar\n  function addCar(string calldata name, string calldata url, uint rent, uint sale) external onlyOwner {\n    _counter.increment();\n    uint counter = _counter.current();\n    cars[counter] = Car(counter, name, url, Status.Available, rent, sale);\n\n    emit CarAdded(counter, cars[counter].name, cars[counter].imgUrl, cars[counter].rentFee, cars[counter].saleFee);\n  }\n\n  //editCarMetadata #onlyOwner #nonExistingCar\n  function editCarMetadata(uint id, string calldata name, string calldata imgUrl, uint rentFee, uint saleFee) external onlyOwner {\n    require(cars[id].id != 0, \"Car with given ID does not exist.\");\n    Car storage car = cars[id];\n    if(bytes(name).length != 0) {\n        car.name = name;\n    }\n    if(bytes(imgUrl).length != 0) {\n        car.imgUrl = imgUrl;\n    }\n\n    if(rentFee > 0) {\n        car.rentFee = rentFee;\n    }\n    if(saleFee > 0) {\n        car.saleFee = saleFee;\n    }\n\n    emit CarMetadataEdited(id, car.name, car.imgUrl, car.rentFee, car.saleFee);\n  }\n\n  //editCarStatus #onlyOwner #nonExistingCar\n  function editCarStatus(uint id, Status status) external onlyOwner {\n    require(cars[id].id != 0, \"Car with given ID does not exist.\");\n    cars[id].status = status;\n\n    emit CarStatusEdited(id, status);\n  }\n\n  //checkOut #existingUser #carIsAvailable #userHasNotRentedACar #userHasNoDebt\n  function checkOut(uint id) external {\n    require(isUser(msg.sender), \"User does not exist!\");\n    require(cars[id].status == Status.Available, \"Car is not available for rent!\");\n    require(users[msg.sender].rentedCarId == 0, \"User has already rented a car!\");\n    require(users[msg.sender].debt == 0, \"User has an outstanding debt!\");\n\n    users[msg.sender].start = block.timestamp;\n    users[msg.sender].rentedCarId = id;\n    cars[id].status =  Status.InUse;\n\n    emit CheckOut(msg.sender, id);\n  }\n\n  //checkIn #existingUser #userHasRentedACar\n  function checkIn() external {\n    require(isUser(msg.sender), \"User does not exist!\");\n    uint rentedCarId = users[msg.sender].rentedCarId;\n    require(rentedCarId != 0, \"User has not rented a car!\");\n\n    uint usedSeconds = block.timestamp - users[msg.sender].start;\n    uint rentFee = cars[rentedCarId].rentFee;\n    users[msg.sender].debt += calculateDebt(usedSeconds, rentFee);\n\n    users[msg.sender].rentedCarId = 0;\n    users[msg.sender].start = 0;\n    users[msg.sender].end = 0;\n    cars[rentedCarId].status = Status.Available;\n\n    emit CheckIn(msg.sender, rentedCarId);\n  }\n\n  //deposit #existingUser\n  function deposit() external payable {\n    require(isUser(msg.sender), \"User does not exist!\");\n    users[msg.sender].balance += msg.value;\n\n    emit Deposit(msg.sender, msg.value);\n  }\n\n  //makePayment #existingUser #existingDebt #sufficientBalance\n  function makePayment() external {\n    require(isUser(msg.sender), \"User does not exist!\");\n    uint debt = users[msg.sender].debt;\n    uint balance = users[msg.sender].balance;\n\n    require(debt > 0, \"User has no debt!\");\n    require(balance >= debt, \"User has insufficient balance!\");\n\n    unchecked {\n      users[msg.sender].balance -= debt;\n    }\n    totalPayments += debt;\n    users[msg.sender].debt = 0;\n\n    emit PaymentMade(msg.sender, debt);\n  }\n\n  //withdrawBalance\n  function withdrawBalance(uint amount) external nonReentrant {\n    require(isUser(msg.sender), \"User does not exist!\");\n    uint balance = users[msg.sender].balance;\n    require(balance >= amount, \"Insufficient balance to withdraw!\");\n\n    users[msg.sender].balance -= amount;\n\n    (bool success, ) = msg.sender.call{value: amount}(\"\");\n    require(success, \"Transfer failed.\");\n\n    emit BalanceWithdrawn(msg.sender, amount);\n  }\n\n  //withdrawOwnerBalance\n  function withdrawOwnerBalance(uint amount) external onlyOwner {\n    require(totalPayments >= amount, \"Insufficient contract balance to withdraw!\");\n\n    (bool success, ) = owner.call{value: amount}(\"\");\n    require(success, \"Transfer failed.\");\n\n    totalPayments -= amount;\n\n    emit BalanceWithdrawn(owner, amount);\n  }\n\n\n  //Query Functions\n\n  //getOwner\n  function getOwner() external view returns(address) {\n    return owner;\n  }\n\n  //isUser\n  function isUser(address walletAddress) internal view returns(bool) {\n    return users[walletAddress].walletAddress != address(0);\n  }\n\n  //getUser #existingUser\n  function getUser(address walletAddress) external view returns (User memory) {\n    require(isUser(walletAddress), \"User does not exist!\");\n    return users[walletAddress];\n  }\n\n  //getCar #existingCar\n  function getCar(uint id) external view returns(Car memory) {\n    require(cars[id].id != 0, \"Car does not exist!\");\n    return cars[id];\n  }\n\n  //getCarsByStatus  \n  function getCarsByStatus(Status _status) external view returns (Car[] memory) {\n    uint count = 0;\n    uint length = _counter.current();\n    for (uint i = 1; i <= length; i++) {\n        if (cars[i].status == _status) {\n            count++;\n        }\n    }\n    Car[] memory carsWithStatus = new Car[](count);\n    count = 0;\n    for (uint i = 1; i <= length; i++) {\n      if (cars[i].status == _status) {\n        carsWithStatus[count] = cars[i];\n        count++;\n      }\n    }\n    return carsWithStatus;\n  }\n\n  //calculateDebt\n  function calculateDebt(uint usedSeconds, uint rentFee) private pure returns (uint) {\n    uint usedMinutes = usedSeconds / 60;\n    return usedMinutes * rentFee;\n  }\n\n  //getCurrentCount\n  function getCurrentCount() external view returns (uint) {\n    return _counter.current();\n  }\n\n  //getContractBalance\n  // Function to return the balance of the contract\n  function getContractBalance() external view onlyOwner returns (uint) {\n    return address(this).balance;\n  }\n\n  //getTotalPayments\n  function getTotalPayments() external view onlyOwner returns (uint) {\n    return totalPayments;\n  }\n\n}\n",
  "sourcePath": "/Users/dmrdvn/Projects/Car-Rental-App/contracts/bsc/RentalPlatform.sol",
  "compiler": {
    "name": "solc",
    "version": "0.8.21+commit.d9974bed.Emscripten.clang"
  },
  "schemaVersion": "3.4.16",
  "updatedAt": "2023-10-23T10:17:39.611Z",
  "networkType": "ethereum",
  "devdoc": {
    "kind": "dev",
    "methods": {},
    "version": 1
  },
  "userdoc": {
    "kind": "user",
    "methods": {},
    "version": 1
  },
  "db": {
    "callBytecode": {
      "id": "0x7f3e52406cd3e2e06654adcdb8110411ff3c5b2176111ea0bf2f0e5140c82970"
    },
    "createBytecode": {
      "id": "0x68e089fee99e990b39cd5264a61b43ebc388ff4e6d4126359286480f3a315871"
    },
    "contract": {
      "id": "0xa924c6a01e5d69d8a4e4f7e3a54e882578bf57d14942de3edd5be5fab8bbd0f0"
    }
  }
}