{
  "contractName": "RentalPlatform",
  "abi": [
    {
      "inputs": [],
      "stateMutability": "nonpayable",
      "type": "constructor"
    },
    {
      "anonymous": false,
      "inputs": [
        {
          "indexed": true,
          "internalType": "address",
          "name": "walletAddress",
          "type": "address"
        },
        {
          "indexed": false,
          "internalType": "uint256",
          "name": "amount",
          "type": "uint256"
        }
      ],
      "name": "BalanceWithdrawn",
      "type": "event"
    },
    {
      "anonymous": false,
      "inputs": [
        {
          "indexed": true,
          "internalType": "uint256",
          "name": "id",
          "type": "uint256"
        },
        {
          "indexed": false,
          "internalType": "string",
          "name": "name",
          "type": "string"
        },
        {
          "indexed": false,
          "internalType": "string",
          "name": "imgUrl",
          "type": "string"
        },
        {
          "indexed": false,
          "internalType": "uint256",
          "name": "rentFee",
          "type": "uint256"
        },
        {
          "indexed": false,
          "internalType": "uint256",
          "name": "saleFee",
          "type": "uint256"
        }
      ],
      "name": "CarAdded",
      "type": "event"
    },
    {
      "anonymous": false,
      "inputs": [
        {
          "indexed": true,
          "internalType": "uint256",
          "name": "id",
          "type": "uint256"
        },
        {
          "indexed": false,
          "internalType": "string",
          "name": "name",
          "type": "string"
        },
        {
          "indexed": false,
          "internalType": "string",
          "name": "imgUrl",
          "type": "string"
        },
        {
          "indexed": false,
          "internalType": "uint256",
          "name": "rentFee",
          "type": "uint256"
        },
        {
          "indexed": false,
          "internalType": "uint256",
          "name": "saleFee",
          "type": "uint256"
        }
      ],
      "name": "CarMetadataEdited",
      "type": "event"
    },
    {
      "anonymous": false,
      "inputs": [
        {
          "indexed": true,
          "internalType": "uint256",
          "name": "id",
          "type": "uint256"
        },
        {
          "indexed": false,
          "internalType": "enum RentalPlatform.Status",
          "name": "status",
          "type": "uint8"
        }
      ],
      "name": "CarStatusEdited",
      "type": "event"
    },
    {
      "anonymous": false,
      "inputs": [
        {
          "indexed": true,
          "internalType": "address",
          "name": "walletAddress",
          "type": "address"
        },
        {
          "indexed": true,
          "internalType": "uint256",
          "name": "carId",
          "type": "uint256"
        }
      ],
      "name": "CheckIn",
      "type": "event"
    },
    {
      "anonymous": false,
      "inputs": [
        {
          "indexed": true,
          "internalType": "address",
          "name": "walletAddress",
          "type": "address"
        },
        {
          "indexed": true,
          "internalType": "uint256",
          "name": "carId",
          "type": "uint256"
        }
      ],
      "name": "CheckOut",
      "type": "event"
    },
    {
      "anonymous": false,
      "inputs": [
        {
          "indexed": true,
          "internalType": "address",
          "name": "walletAddress",
          "type": "address"
        },
        {
          "indexed": false,
          "internalType": "uint256",
          "name": "amount",
          "type": "uint256"
        }
      ],
      "name": "Deposit",
      "type": "event"
    },
    {
      "anonymous": false,
      "inputs": [
        {
          "indexed": true,
          "internalType": "address",
          "name": "walletAddress",
          "type": "address"
        },
        {
          "indexed": false,
          "internalType": "uint256",
          "name": "amount",
          "type": "uint256"
        }
      ],
      "name": "PaymentMade",
      "type": "event"
    },
    {
      "anonymous": false,
      "inputs": [
        {
          "indexed": true,
          "internalType": "address",
          "name": "walletAddress",
          "type": "address"
        },
        {
          "indexed": false,
          "internalType": "string",
          "name": "name",
          "type": "string"
        },
        {
          "indexed": false,
          "internalType": "string",
          "name": "lastname",
          "type": "string"
        }
      ],
      "name": "UserAdded",
      "type": "event"
    },
    {
      "inputs": [
        {
          "internalType": "address",
          "name": "_newOwner",
          "type": "address"
        }
      ],
      "name": "setOwner",
      "outputs": [],
      "stateMutability": "nonpayable",
      "type": "function"
    },
    {
      "inputs": [
        {
          "internalType": "string",
          "name": "name",
          "type": "string"
        },
        {
          "internalType": "string",
          "name": "lastname",
          "type": "string"
        }
      ],
      "name": "addUser",
      "outputs": [],
      "stateMutability": "nonpayable",
      "type": "function"
    },
    {
      "inputs": [
        {
          "internalType": "string",
          "name": "name",
          "type": "string"
        },
        {
          "internalType": "string",
          "name": "url",
          "type": "string"
        },
        {
          "internalType": "uint256",
          "name": "rent",
          "type": "uint256"
        },
        {
          "internalType": "uint256",
          "name": "sale",
          "type": "uint256"
        }
      ],
      "name": "addCar",
      "outputs": [],
      "stateMutability": "nonpayable",
      "type": "function"
    },
    {
      "inputs": [
        {
          "internalType": "uint256",
          "name": "id",
          "type": "uint256"
        },
        {
          "internalType": "string",
          "name": "name",
          "type": "string"
        },
        {
          "internalType": "string",
          "name": "imgUrl",
          "type": "string"
        },
        {
          "internalType": "uint256",
          "name": "rentFee",
          "type": "uint256"
        },
        {
          "internalType": "uint256",
          "name": "saleFee",
          "type": "uint256"
        }
      ],
      "name": "editCarMetadata",
      "outputs": [],
      "stateMutability": "nonpayable",
      "type": "function"
    },
    {
      "inputs": [
        {
          "internalType": "uint256",
          "name": "id",
          "type": "uint256"
        },
        {
          "internalType": "enum RentalPlatform.Status",
          "name": "status",
          "type": "uint8"
        }
      ],
      "name": "editCarStatus",
      "outputs": [],
      "stateMutability": "nonpayable",
      "type": "function"
    },
    {
      "inputs": [
        {
          "internalType": "uint256",
          "name": "id",
          "type": "uint256"
        }
      ],
      "name": "checkOut",
      "outputs": [],
      "stateMutability": "nonpayable",
      "type": "function"
    },
    {
      "inputs": [],
      "name": "checkIn",
      "outputs": [],
      "stateMutability": "nonpayable",
      "type": "function"
    },
    {
      "inputs": [],
      "name": "deposit",
      "outputs": [],
      "stateMutability": "payable",
      "type": "function"
    },
    {
      "inputs": [],
      "name": "makePayment",
      "outputs": [],
      "stateMutability": "nonpayable",
      "type": "function"
    },
    {
      "inputs": [
        {
          "internalType": "uint256",
          "name": "amount",
          "type": "uint256"
        }
      ],
      "name": "withdrawBalance",
      "outputs": [],
      "stateMutability": "nonpayable",
      "type": "function"
    },
    {
      "inputs": [
        {
          "internalType": "uint256",
          "name": "amount",
          "type": "uint256"
        }
      ],
      "name": "withdrawOwnerBalance",
      "outputs": [],
      "stateMutability": "nonpayable",
      "type": "function"
    },
    {
      "inputs": [],
      "name": "getOwner",
      "outputs": [
        {
          "internalType": "address",
          "name": "",
          "type": "address"
        }
      ],
      "stateMutability": "view",
      "type": "function"
    },
    {
      "inputs": [
        {
          "internalType": "address",
          "name": "walletAddress",
          "type": "address"
        }
      ],
      "name": "getUser",
      "outputs": [
        {
          "components": [
            {
              "internalType": "address",
              "name": "walletAddress",
              "type": "address"
            },
            {
              "internalType": "string",
              "name": "name",
              "type": "string"
            },
            {
              "internalType": "string",
              "name": "lastname",
              "type": "string"
            },
            {
              "internalType": "uint256",
              "name": "rentedCarId",
              "type": "uint256"
            },
            {
              "internalType": "uint256",
              "name": "balance",
              "type": "uint256"
            },
            {
              "internalType": "uint256",
              "name": "debt",
              "type": "uint256"
            },
            {
              "internalType": "uint256",
              "name": "start",
              "type": "uint256"
            },
            {
              "internalType": "uint256",
              "name": "end",
              "type": "uint256"
            }
          ],
          "internalType": "struct RentalPlatform.User",
          "name": "",
          "type": "tuple"
        }
      ],
      "stateMutability": "view",
      "type": "function"
    },
    {
      "inputs": [
        {
          "internalType": "uint256",
          "name": "id",
          "type": "uint256"
        }
      ],
      "name": "getCar",
      "outputs": [
        {
          "components": [
            {
              "internalType": "uint256",
              "name": "id",
              "type": "uint256"
            },
            {
              "internalType": "string",
              "name": "name",
              "type": "string"
            },
            {
              "internalType": "string",
              "name": "imgUrl",
              "type": "string"
            },
            {
              "internalType": "enum RentalPlatform.Status",
              "name": "status",
              "type": "uint8"
            },
            {
              "internalType": "uint256",
              "name": "rentFee",
              "type": "uint256"
            },
            {
              "internalType": "uint256",
              "name": "saleFee",
              "type": "uint256"
            }
          ],
          "internalType": "struct RentalPlatform.Car",
          "name": "",
          "type": "tuple"
        }
      ],
      "stateMutability": "view",
      "type": "function"
    },
    {
      "inputs": [
        {
          "internalType": "enum RentalPlatform.Status",
          "name": "_status",
          "type": "uint8"
        }
      ],
      "name": "getCarsByStatus",
      "outputs": [
        {
          "components": [
            {
              "internalType": "uint256",
              "name": "id",
              "type": "uint256"
            },
            {
              "internalType": "string",
              "name": "name",
              "type": "string"
            },
            {
              "internalType": "string",
              "name": "imgUrl",
              "type": "string"
            },
            {
              "internalType": "enum RentalPlatform.Status",
              "name": "status",
              "type": "uint8"
            },
            {
              "internalType": "uint256",
              "name": "rentFee",
              "type": "uint256"
            },
            {
              "internalType": "uint256",
              "name": "saleFee",
              "type": "uint256"
            }
          ],
          "internalType": "struct RentalPlatform.Car[]",
          "name": "",
          "type": "tuple[]"
        }
      ],
      "stateMutability": "view",
      "type": "function"
    },
    {
      "inputs": [],
      "name": "getCurrentCount",
      "outputs": [
        {
          "internalType": "uint256",
          "name": "",
          "type": "uint256"
        }
      ],
      "stateMutability": "view",
      "type": "function"
    },
    {
      "inputs": [],
      "name": "getContractBalance",
      "outputs": [
        {
          "internalType": "uint256",
          "name": "",
          "type": "uint256"
        }
      ],
      "stateMutability": "view",
      "type": "function"
    },
    {
      "inputs": [],
      "name": "getTotalPayments",
      "outputs": [
        {
          "internalType": "uint256",
          "name": "",
          "type": "uint256"
        }
      ],
      "stateMutability": "view",
      "type": "function"
    }
  ],
  "bytecode": "0x608060405234801561001057600080fd5b50600160008190555033600260006101000a81548173ffffffffffffffffffffffffffffffffffffffff021916908373ffffffffffffffffffffffffffffffffffffffff1602179055506000600381905550613c72806100716000396000f3fe6080604052600436106101095760003560e01c8063708f29a611610095578063d0e30db011610064578063d0e30db014610353578063d8546f491461035d578063d8d7970014610386578063da76d5cd1461039d578063dd51babf146103c657610109565b8063708f29a614610297578063893d20e8146102c25780639a43da73146102ed578063ba38ccf61461031657610109565b80633c69c657116100dc5780633c69c657146101a05780634865bed2146101c95780635e8be190146101f25780636f77926b1461022f5780636f9fb98a1461026c57610109565b8063079eaf341461010e57806313af403514610137578063183ff085146101605780631bd2eeee14610177575b600080fd5b34801561011a57600080fd5b506101356004803603810190610130919061264d565b6103f1565b005b34801561014357600080fd5b5061015e6004803603810190610159919061272c565b6106d6565b005b34801561016c57600080fd5b506101756107aa565b005b34801561018357600080fd5b5061019e6004803603810190610199919061278f565b610aab565b005b3480156101ac57600080fd5b506101c760048036038101906101c2919061278f565b610d9a565b005b3480156101d557600080fd5b506101f060048036038101906101eb91906127bc565b610fca565b005b3480156101fe57600080fd5b506102196004803603810190610214919061278f565b611266565b6040516102269190612a09565b60405180910390f35b34801561023b57600080fd5b506102566004803603810190610251919061272c565b611469565b6040516102639190612af1565b60405180910390f35b34801561027857600080fd5b506102816116b7565b60405161028e9190612b22565b60405180910390f35b3480156102a357600080fd5b506102ac61174f565b6040516102b99190612b22565b60405180910390f35b3480156102ce57600080fd5b506102d76117e9565b6040516102e49190612b4c565b60405180910390f35b3480156102f957600080fd5b50610314600480360381019061030f9190612b8c565b611813565b005b34801561032257600080fd5b5061033d60048036038101906103389190612bcc565b611976565b60405161034a9190612d4b565b60405180910390f35b61035b611ca5565b005b34801561036957600080fd5b50610384600480360381019061037f9190612d6d565b611d96565b005b34801561039257600080fd5b5061039b611f52565b005b3480156103a957600080fd5b506103c460048036038101906103bf919061278f565b6121b1565b005b3480156103d257600080fd5b506103db6123eb565b6040516103e89190612b22565b60405180910390f35b6103fa336123fc565b1561043a576040517f08c379a000000000000000000000000000000000000000000000000000000000815260040161043190612e86565b60405180910390fd5b6040518061010001604052803373ffffffffffffffffffffffffffffffffffffffff16815260200185858080601f016020809104026020016040519081016040528093929190818152602001838380828437600081840152601f19601f82011690508083019250505050505050815260200183838080601f016020809104026020016040519081016040528093929190818152602001838380828437600081840152601f19601f820116905080830192505050505050508152602001600081526020016000815260200160008152602001600081526020016000815250600460003373ffffffffffffffffffffffffffffffffffffffff1673ffffffffffffffffffffffffffffffffffffffff16815260200190815260200160002060008201518160000160006101000a81548173ffffffffffffffffffffffffffffffffffffffff021916908373ffffffffffffffffffffffffffffffffffffffff16021790555060208201518160010190816105b291906130e1565b5060408201518160020190816105c891906130e1565b50606082015181600301556080820151816004015560a0820151816005015560c0820151816006015560e082015181600701559050503373ffffffffffffffffffffffffffffffffffffffff167f8eab1db142a914aff8b515eedb9177bd7effaef6d714c41e30bdf15206778607600460003373ffffffffffffffffffffffffffffffffffffffff1673ffffffffffffffffffffffffffffffffffffffff168152602001908152602001600020600101600460003373ffffffffffffffffffffffffffffffffffffffff1673ffffffffffffffffffffffffffffffffffffffff1681526020019081526020016000206002016040516106c8929190613237565b60405180910390a250505050565b600260009054906101000a900473ffffffffffffffffffffffffffffffffffffffff1673ffffffffffffffffffffffffffffffffffffffff163373ffffffffffffffffffffffffffffffffffffffff1614610766576040517f08c379a000000000000000000000000000000000000000000000000000000000815260040161075d906132e0565b60405180910390fd5b80600260006101000a81548173ffffffffffffffffffffffffffffffffffffffff021916908373ffffffffffffffffffffffffffffffffffffffff16021790555050565b6107b3336123fc565b6107f2576040517f08c379a00000000000000000000000000000000000000000000000000000000081526004016107e99061334c565b60405180910390fd5b6000600460003373ffffffffffffffffffffffffffffffffffffffff1673ffffffffffffffffffffffffffffffffffffffff1681526020019081526020016000206003015490506000810361087c576040517f08c379a0000000000000000000000000000000000000000000000000000000008152600401610873906133b8565b60405180910390fd5b6000600460003373ffffffffffffffffffffffffffffffffffffffff1673ffffffffffffffffffffffffffffffffffffffff16815260200190815260200160002060060154426108cc9190613407565b90506000600560008481526020019081526020016000206004015490506108f38282612497565b600460003373ffffffffffffffffffffffffffffffffffffffff1673ffffffffffffffffffffffffffffffffffffffff1681526020019081526020016000206005016000828254610944919061343b565b925050819055506000600460003373ffffffffffffffffffffffffffffffffffffffff1673ffffffffffffffffffffffffffffffffffffffff168152602001908152602001600020600301819055506000600460003373ffffffffffffffffffffffffffffffffffffffff1673ffffffffffffffffffffffffffffffffffffffff168152602001908152602001600020600601819055506000600460003373ffffffffffffffffffffffffffffffffffffffff1673ffffffffffffffffffffffffffffffffffffffff1681526020019081526020016000206007018190555060026005600085815260200190815260200160002060030160006101000a81548160ff02191690836002811115610a5d57610a5c612902565b5b0217905550823373ffffffffffffffffffffffffffffffffffffffff167fa864a8b988e604bb05d6ce75d53efabb5620c45b15380b7bd0c51dcfa71dda0360405160405180910390a3505050565b610ab4336123fc565b610af3576040517f08c379a0000000000000000000000000000000000000000000000000000000008152600401610aea9061334c565b60405180910390fd5b600280811115610b0657610b05612902565b5b6005600083815260200190815260200160002060030160009054906101000a900460ff166002811115610b3c57610b3b612902565b5b14610b7c576040517f08c379a0000000000000000000000000000000000000000000000000000000008152600401610b73906134bb565b60405180910390fd5b6000600460003373ffffffffffffffffffffffffffffffffffffffff1673ffffffffffffffffffffffffffffffffffffffff1681526020019081526020016000206003015414610c01576040517f08c379a0000000000000000000000000000000000000000000000000000000008152600401610bf890613527565b60405180910390fd5b6000600460003373ffffffffffffffffffffffffffffffffffffffff1673ffffffffffffffffffffffffffffffffffffffff1681526020019081526020016000206005015414610c86576040517f08c379a0000000000000000000000000000000000000000000000000000000008152600401610c7d90613593565b60405180910390fd5b42600460003373ffffffffffffffffffffffffffffffffffffffff1673ffffffffffffffffffffffffffffffffffffffff1681526020019081526020016000206006018190555080600460003373ffffffffffffffffffffffffffffffffffffffff1673ffffffffffffffffffffffffffffffffffffffff1681526020019081526020016000206003018190555060016005600083815260200190815260200160002060030160006101000a81548160ff02191690836002811115610d4e57610d4d612902565b5b0217905550803373ffffffffffffffffffffffffffffffffffffffff167ff65ce03794824579bcd95d8c6743ffc10c4a5e7405fb3876c1abf81453105c4260405160405180910390a350565b600260009054906101000a900473ffffffffffffffffffffffffffffffffffffffff1673ffffffffffffffffffffffffffffffffffffffff163373ffffffffffffffffffffffffffffffffffffffff1614610e2a576040517f08c379a0000000000000000000000000000000000000000000000000000000008152600401610e21906132e0565b60405180910390fd5b806003541015610e6f576040517f08c379a0000000000000000000000000000000000000000000000000000000008152600401610e6690613625565b60405180910390fd5b6000600260009054906101000a900473ffffffffffffffffffffffffffffffffffffffff1673ffffffffffffffffffffffffffffffffffffffff1682604051610eb790613676565b60006040518083038185875af1925050503d8060008114610ef4576040519150601f19603f3d011682016040523d82523d6000602084013e610ef9565b606091505b5050905080610f3d576040517f08c379a0000000000000000000000000000000000000000000000000000000008152600401610f34906136d7565b60405180910390fd5b8160036000828254610f4f9190613407565b92505081905550600260009054906101000a900473ffffffffffffffffffffffffffffffffffffffff1673ffffffffffffffffffffffffffffffffffffffff167fddc398b321237a8d40ac914388309c2f52a08c134e4dc4ce61e32f57cb7d80f183604051610fbe9190612b22565b60405180910390a25050565b600260009054906101000a900473ffffffffffffffffffffffffffffffffffffffff1673ffffffffffffffffffffffffffffffffffffffff163373ffffffffffffffffffffffffffffffffffffffff161461105a576040517f08c379a0000000000000000000000000000000000000000000000000000000008152600401611051906132e0565b60405180910390fd5b61106460016124be565b600061107060016124d4565b90506040518060c0016040528082815260200188888080601f016020809104026020016040519081016040528093929190818152602001838380828437600081840152601f19601f82011690508083019250505050505050815260200186868080601f016020809104026020016040519081016040528093929190818152602001838380828437600081840152601f19601f82011690508083019250505050505050815260200160028081111561112a57611129612902565b5b8152602001848152602001838152506005600083815260200190815260200160002060008201518160000155602082015181600101908161116b91906130e1565b50604082015181600201908161118191906130e1565b5060608201518160030160006101000a81548160ff021916908360028111156111ad576111ac612902565b5b02179055506080820151816004015560a08201518160050155905050807f1d26cfb076fd58c1fa5695bb34e5556995a0aa34ecc601438f9957d6a71439a360056000848152602001908152602001600020600101600560008581526020019081526020016000206002016005600086815260200190815260200160002060040154600560008781526020019081526020016000206005015460405161125594939291906136f7565b60405180910390a250505050505050565b61126e61253b565b60006005600084815260200190815260200160002060000154036112c7576040517f08c379a00000000000000000000000000000000000000000000000000000000081526004016112be90613796565b60405180910390fd5b600560008381526020019081526020016000206040518060c0016040529081600082015481526020016001820180546112ff90612f04565b80601f016020809104026020016040519081016040528092919081815260200182805461132b90612f04565b80156113785780601f1061134d57610100808354040283529160200191611378565b820191906000526020600020905b81548152906001019060200180831161135b57829003601f168201915b5050505050815260200160028201805461139190612f04565b80601f01602080910402602001604051908101604052809291908181526020018280546113bd90612f04565b801561140a5780601f106113df5761010080835404028352916020019161140a565b820191906000526020600020905b8154815290600101906020018083116113ed57829003601f168201915b505050505081526020016003820160009054906101000a900460ff16600281111561143857611437612902565b5b600281111561144a57611449612902565b5b8152602001600482015481526020016005820154815250509050919050565b611471612583565b61147a826123fc565b6114b9576040517f08c379a00000000000000000000000000000000000000000000000000000000081526004016114b09061334c565b60405180910390fd5b600460008373ffffffffffffffffffffffffffffffffffffffff1673ffffffffffffffffffffffffffffffffffffffff168152602001908152602001600020604051806101000160405290816000820160009054906101000a900473ffffffffffffffffffffffffffffffffffffffff1673ffffffffffffffffffffffffffffffffffffffff1673ffffffffffffffffffffffffffffffffffffffff16815260200160018201805461156a90612f04565b80601f016020809104026020016040519081016040528092919081815260200182805461159690612f04565b80156115e35780601f106115b8576101008083540402835291602001916115e3565b820191906000526020600020905b8154815290600101906020018083116115c657829003601f168201915b505050505081526020016002820180546115fc90612f04565b80601f016020809104026020016040519081016040528092919081815260200182805461162890612f04565b80156116755780601f1061164a57610100808354040283529160200191611675565b820191906000526020600020905b81548152906001019060200180831161165857829003601f168201915b50505050508152602001600382015481526020016004820154815260200160058201548152602001600682015481526020016007820154815250509050919050565b6000600260009054906101000a900473ffffffffffffffffffffffffffffffffffffffff1673ffffffffffffffffffffffffffffffffffffffff163373ffffffffffffffffffffffffffffffffffffffff1614611749576040517f08c379a0000000000000000000000000000000000000000000000000000000008152600401611740906132e0565b60405180910390fd5b47905090565b6000600260009054906101000a900473ffffffffffffffffffffffffffffffffffffffff1673ffffffffffffffffffffffffffffffffffffffff163373ffffffffffffffffffffffffffffffffffffffff16146117e1576040517f08c379a00000000000000000000000000000000000000000000000000000000081526004016117d8906132e0565b60405180910390fd5b600354905090565b6000600260009054906101000a900473ffffffffffffffffffffffffffffffffffffffff16905090565b600260009054906101000a900473ffffffffffffffffffffffffffffffffffffffff1673ffffffffffffffffffffffffffffffffffffffff163373ffffffffffffffffffffffffffffffffffffffff16146118a3576040517f08c379a000000000000000000000000000000000000000000000000000000000815260040161189a906132e0565b60405180910390fd5b60006005600084815260200190815260200160002060000154036118fc576040517f08c379a00000000000000000000000000000000000000000000000000000000081526004016118f390613828565b60405180910390fd5b806005600084815260200190815260200160002060030160006101000a81548160ff0219169083600281111561193557611934612902565b5b0217905550817fa2038badc9c4004a10f632052c54b0011bb307c2cadc65f22071f61ffd1066338260405161196a9190613857565b60405180910390a25050565b606060008061198560016124d4565b90506000600190505b818111611a05578460028111156119a8576119a7612902565b5b6005600083815260200190815260200160002060030160009054906101000a900460ff1660028111156119de576119dd612902565b5b036119f25782806119ee90613872565b9350505b80806119fd90613872565b91505061198e565b5060008267ffffffffffffffff811115611a2257611a21612ea6565b5b604051908082528060200260200182016040528015611a5b57816020015b611a4861253b565b815260200190600190039081611a405790505b509050600092506000600190505b828111611c9957856002811115611a8357611a82612902565b5b6005600083815260200190815260200160002060030160009054906101000a900460ff166002811115611ab957611ab8612902565b5b03611c8657600560008281526020019081526020016000206040518060c001604052908160008201548152602001600182018054611af690612f04565b80601f0160208091040260200160405190810160405280929190818152602001828054611b2290612f04565b8015611b6f5780601f10611b4457610100808354040283529160200191611b6f565b820191906000526020600020905b815481529060010190602001808311611b5257829003601f168201915b50505050508152602001600282018054611b8890612f04565b80601f0160208091040260200160405190810160405280929190818152602001828054611bb490612f04565b8015611c015780601f10611bd657610100808354040283529160200191611c01565b820191906000526020600020905b815481529060010190602001808311611be457829003601f168201915b505050505081526020016003820160009054906101000a900460ff166002811115611c2f57611c2e612902565b5b6002811115611c4157611c40612902565b5b815260200160048201548152602001600582015481525050828581518110611c6c57611c6b6138ba565b5b60200260200101819052508380611c8290613872565b9450505b8080611c9190613872565b915050611a69565b50809350505050919050565b611cae336123fc565b611ced576040517f08c379a0000000000000000000000000000000000000000000000000000000008152600401611ce49061334c565b60405180910390fd5b34600460003373ffffffffffffffffffffffffffffffffffffffff1673ffffffffffffffffffffffffffffffffffffffff1681526020019081526020016000206004016000828254611d3f919061343b565b925050819055503373ffffffffffffffffffffffffffffffffffffffff167fe1fffcc4923d04b559f4d29a8bfc6cda04eb5b0d3c460751c2402c5c5cc9109c34604051611d8c9190612b22565b60405180910390a2565b600260009054906101000a900473ffffffffffffffffffffffffffffffffffffffff1673ffffffffffffffffffffffffffffffffffffffff163373ffffffffffffffffffffffffffffffffffffffff1614611e26576040517f08c379a0000000000000000000000000000000000000000000000000000000008152600401611e1d906132e0565b60405180910390fd5b6000600560008981526020019081526020016000206000015403611e7f576040517f08c379a0000000000000000000000000000000000000000000000000000000008152600401611e7690613828565b60405180910390fd5b600060056000898152602001908152602001600020905060008787905014611eb6578686826001019182611eb49291906138f4565b505b60008585905014611ed6578484826002019182611ed49291906138f4565b505b6000831115611ee9578281600401819055505b6000821115611efc578181600501819055505b877f10e3e3a462a9f4c167783d47719e646c87b1a773b083fb5eef04a076e887079c826001018360020184600401548560050154604051611f4094939291906136f7565b60405180910390a25050505050505050565b611f5b336123fc565b611f9a576040517f08c379a0000000000000000000000000000000000000000000000000000000008152600401611f919061334c565b60405180910390fd5b6000600460003373ffffffffffffffffffffffffffffffffffffffff1673ffffffffffffffffffffffffffffffffffffffff1681526020019081526020016000206005015490506000600460003373ffffffffffffffffffffffffffffffffffffffff1673ffffffffffffffffffffffffffffffffffffffff1681526020019081526020016000206004015490506000821161206b576040517f08c379a000000000000000000000000000000000000000000000000000000000815260040161206290613a10565b60405180910390fd5b818110156120ae576040517f08c379a00000000000000000000000000000000000000000000000000000000081526004016120a590613a7c565b60405180910390fd5b81600460003373ffffffffffffffffffffffffffffffffffffffff1673ffffffffffffffffffffffffffffffffffffffff168152602001908152602001600020600401600082825403925050819055508160036000828254612110919061343b565b925050819055506000600460003373ffffffffffffffffffffffffffffffffffffffff1673ffffffffffffffffffffffffffffffffffffffff168152602001908152602001600020600501819055503373ffffffffffffffffffffffffffffffffffffffff167f3a2d0e41c506b136330c6e5e0295ccbf0966daece99bfe7c89020cc01dbfb8d6836040516121a59190612b22565b60405180910390a25050565b6121b96124e2565b6121c2336123fc565b612201576040517f08c379a00000000000000000000000000000000000000000000000000000000081526004016121f89061334c565b60405180910390fd5b6000600460003373ffffffffffffffffffffffffffffffffffffffff1673ffffffffffffffffffffffffffffffffffffffff1681526020019081526020016000206004015490508181101561228b576040517f08c379a000000000000000000000000000000000000000000000000000000000815260040161228290613b0e565b60405180910390fd5b81600460003373ffffffffffffffffffffffffffffffffffffffff1673ffffffffffffffffffffffffffffffffffffffff16815260200190815260200160002060040160008282546122dd9190613407565b9250508190555060003373ffffffffffffffffffffffffffffffffffffffff168360405161230a90613676565b60006040518083038185875af1925050503d8060008114612347576040519150601f19603f3d011682016040523d82523d6000602084013e61234c565b606091505b5050905080612390576040517f08c379a0000000000000000000000000000000000000000000000000000000008152600401612387906136d7565b60405180910390fd5b3373ffffffffffffffffffffffffffffffffffffffff167fddc398b321237a8d40ac914388309c2f52a08c134e4dc4ce61e32f57cb7d80f1846040516123d69190612b22565b60405180910390a250506123e8612531565b50565b60006123f760016124d4565b905090565b60008073ffffffffffffffffffffffffffffffffffffffff16600460008473ffffffffffffffffffffffffffffffffffffffff1673ffffffffffffffffffffffffffffffffffffffff16815260200190815260200160002060000160009054906101000a900473ffffffffffffffffffffffffffffffffffffffff1673ffffffffffffffffffffffffffffffffffffffff1614159050919050565b600080603c846124a79190613b5d565b905082816124b59190613b8e565b91505092915050565b6001816000016000828254019250508190555050565b600081600001549050919050565b600260005403612527576040517f08c379a000000000000000000000000000000000000000000000000000000000815260040161251e90613c1c565b60405180910390fd5b6002600081905550565b6001600081905550565b6040518060c001604052806000815260200160608152602001606081526020016000600281111561256f5761256e612902565b5b815260200160008152602001600081525090565b604051806101000160405280600073ffffffffffffffffffffffffffffffffffffffff168152602001606081526020016060815260200160008152602001600081526020016000815260200160008152602001600081525090565b600080fd5b600080fd5b600080fd5b600080fd5b600080fd5b60008083601f84011261260d5761260c6125e8565b5b8235905067ffffffffffffffff81111561262a576126296125ed565b5b602083019150836001820283011115612646576126456125f2565b5b9250929050565b60008060008060408587031215612667576126666125de565b5b600085013567ffffffffffffffff811115612685576126846125e3565b5b612691878288016125f7565b9450945050602085013567ffffffffffffffff8111156126b4576126b36125e3565b5b6126c0878288016125f7565b925092505092959194509250565b600073ffffffffffffffffffffffffffffffffffffffff82169050919050565b60006126f9826126ce565b9050919050565b612709816126ee565b811461271457600080fd5b50565b60008135905061272681612700565b92915050565b600060208284031215612742576127416125de565b5b600061275084828501612717565b91505092915050565b6000819050919050565b61276c81612759565b811461277757600080fd5b50565b60008135905061278981612763565b92915050565b6000602082840312156127a5576127a46125de565b5b60006127b38482850161277a565b91505092915050565b600080600080600080608087890312156127d9576127d86125de565b5b600087013567ffffffffffffffff8111156127f7576127f66125e3565b5b61280389828a016125f7565b9650965050602087013567ffffffffffffffff811115612826576128256125e3565b5b61283289828a016125f7565b9450945050604061284589828a0161277a565b925050606061285689828a0161277a565b9150509295509295509295565b61286c81612759565b82525050565b600081519050919050565b600082825260208201905092915050565b60005b838110156128ac578082015181840152602081019050612891565b60008484015250505050565b6000601f19601f8301169050919050565b60006128d482612872565b6128de818561287d565b93506128ee81856020860161288e565b6128f7816128b8565b840191505092915050565b7f4e487b7100000000000000000000000000000000000000000000000000000000600052602160045260246000fd5b6003811061294257612941612902565b5b50565b600081905061295382612931565b919050565b600061296382612945565b9050919050565b61297381612958565b82525050565b600060c0830160008301516129916000860182612863565b50602083015184820360208601526129a982826128c9565b915050604083015184820360408601526129c382826128c9565b91505060608301516129d8606086018261296a565b5060808301516129eb6080860182612863565b5060a08301516129fe60a0860182612863565b508091505092915050565b60006020820190508181036000830152612a238184612979565b905092915050565b612a34816126ee565b82525050565b600061010083016000830151612a536000860182612a2b565b5060208301518482036020860152612a6b82826128c9565b91505060408301518482036040860152612a8582826128c9565b9150506060830151612a9a6060860182612863565b506080830151612aad6080860182612863565b5060a0830151612ac060a0860182612863565b5060c0830151612ad360c0860182612863565b5060e0830151612ae660e0860182612863565b508091505092915050565b60006020820190508181036000830152612b0b8184612a3a565b905092915050565b612b1c81612759565b82525050565b6000602082019050612b376000830184612b13565b92915050565b612b46816126ee565b82525050565b6000602082019050612b616000830184612b3d565b92915050565b60038110612b7457600080fd5b50565b600081359050612b8681612b67565b92915050565b60008060408385031215612ba357612ba26125de565b5b6000612bb18582860161277a565b9250506020612bc285828601612b77565b9150509250929050565b600060208284031215612be257612be16125de565b5b6000612bf084828501612b77565b91505092915050565b600081519050919050565b600082825260208201905092915050565b6000819050602082019050919050565b600060c083016000830151612c3d6000860182612863565b5060208301518482036020860152612c5582826128c9565b91505060408301518482036040860152612c6f82826128c9565b9150506060830151612c84606086018261296a565b506080830151612c976080860182612863565b5060a0830151612caa60a0860182612863565b508091505092915050565b6000612cc18383612c25565b905092915050565b6000602082019050919050565b6000612ce182612bf9565b612ceb8185612c04565b935083602082028501612cfd85612c15565b8060005b85811015612d395784840389528151612d1a8582612cb5565b9450612d2583612cc9565b925060208a01995050600181019050612d01565b50829750879550505050505092915050565b60006020820190508181036000830152612d658184612cd6565b905092915050565b600080600080600080600060a0888a031215612d8c57612d8b6125de565b5b6000612d9a8a828b0161277a565b975050602088013567ffffffffffffffff811115612dbb57612dba6125e3565b5b612dc78a828b016125f7565b9650965050604088013567ffffffffffffffff811115612dea57612de96125e3565b5b612df68a828b016125f7565b94509450506060612e098a828b0161277a565b9250506080612e1a8a828b0161277a565b91505092959891949750929550565b600082825260208201905092915050565b7f5573657220616c72656164792065786973747321000000000000000000000000600082015250565b6000612e70601483612e29565b9150612e7b82612e3a565b602082019050919050565b60006020820190508181036000830152612e9f81612e63565b9050919050565b7f4e487b7100000000000000000000000000000000000000000000000000000000600052604160045260246000fd5b7f4e487b7100000000000000000000000000000000000000000000000000000000600052602260045260246000fd5b60006002820490506001821680612f1c57607f821691505b602082108103612f2f57612f2e612ed5565b5b50919050565b60008190508160005260206000209050919050565b60006020601f8301049050919050565b600082821b905092915050565b600060088302612f977fffffffffffffffffffffffffffffffffffffffffffffffffffffffffffffffff82612f5a565b612fa18683612f5a565b95508019841693508086168417925050509392505050565b6000819050919050565b6000612fde612fd9612fd484612759565b612fb9565b612759565b9050919050565b6000819050919050565b612ff883612fc3565b61300c61300482612fe5565b848454612f67565b825550505050565b600090565b613021613014565b61302c818484612fef565b505050565b5b8181101561305057613045600082613019565b600181019050613032565b5050565b601f8211156130955761306681612f35565b61306f84612f4a565b8101602085101561307e578190505b61309261308a85612f4a565b830182613031565b50505b505050565b600082821c905092915050565b60006130b86000198460080261309a565b1980831691505092915050565b60006130d183836130a7565b9150826002028217905092915050565b6130ea82612872565b67ffffffffffffffff81111561310357613102612ea6565b5b61310d8254612f04565b613118828285613054565b600060209050601f83116001811461314b5760008415613139578287015190505b61314385826130c5565b8655506131ab565b601f19841661315986612f35565b60005b828110156131815784890151825560018201915060208501945060208101905061315c565b8683101561319e578489015161319a601f8916826130a7565b8355505b6001600288020188555050505b505050505050565b600081546131c081612f04565b6131ca8186612e29565b945060018216600081146131e557600181146131fb5761322e565b60ff19831686528115156020028601935061322e565b61320485612f35565b60005b8381101561322657815481890152600182019150602081019050613207565b808801955050505b50505092915050565b6000604082019050818103600083015261325181856131b3565b9050818103602083015261326581846131b3565b90509392505050565b7f4f6e6c7920746865206f776e65722063616e2063616c6c20746869732066756e60008201527f6374696f6e000000000000000000000000000000000000000000000000000000602082015250565b60006132ca602583612e29565b91506132d58261326e565b604082019050919050565b600060208201905081810360008301526132f9816132bd565b9050919050565b7f5573657220646f6573206e6f7420657869737421000000000000000000000000600082015250565b6000613336601483612e29565b915061334182613300565b602082019050919050565b6000602082019050818103600083015261336581613329565b9050919050565b7f5573657220686173206e6f742072656e74656420612063617221000000000000600082015250565b60006133a2601a83612e29565b91506133ad8261336c565b602082019050919050565b600060208201905081810360008301526133d181613395565b9050919050565b7f4e487b7100000000000000000000000000000000000000000000000000000000600052601160045260246000fd5b600061341282612759565b915061341d83612759565b9250828203905081811115613435576134346133d8565b5b92915050565b600061344682612759565b915061345183612759565b9250828201905080821115613469576134686133d8565b5b92915050565b7f436172206973206e6f7420617661696c61626c6520666f722072656e74210000600082015250565b60006134a5601e83612e29565b91506134b08261346f565b602082019050919050565b600060208201905081810360008301526134d481613498565b9050919050565b7f557365722068617320616c72656164792072656e746564206120636172210000600082015250565b6000613511601e83612e29565b915061351c826134db565b602082019050919050565b6000602082019050818103600083015261354081613504565b9050919050565b7f557365722068617320616e206f75747374616e64696e67206465627421000000600082015250565b600061357d601d83612e29565b915061358882613547565b602082019050919050565b600060208201905081810360008301526135ac81613570565b9050919050565b7f496e73756666696369656e7420636f6e74726163742062616c616e636520746f60008201527f2077697468647261772100000000000000000000000000000000000000000000602082015250565b600061360f602a83612e29565b915061361a826135b3565b604082019050919050565b6000602082019050818103600083015261363e81613602565b9050919050565b600081905092915050565b50565b6000613660600083613645565b915061366b82613650565b600082019050919050565b600061368182613653565b9150819050919050565b7f5472616e73666572206661696c65642e00000000000000000000000000000000600082015250565b60006136c1601083612e29565b91506136cc8261368b565b602082019050919050565b600060208201905081810360008301526136f0816136b4565b9050919050565b6000608082019050818103600083015261371181876131b3565b9050818103602083015261372581866131b3565b90506137346040830185612b13565b6137416060830184612b13565b95945050505050565b7f43617220646f6573206e6f742065786973742100000000000000000000000000600082015250565b6000613780601383612e29565b915061378b8261374a565b602082019050919050565b600060208201905081810360008301526137af81613773565b9050919050565b7f436172207769746820676976656e20494420646f6573206e6f7420657869737460008201527f2e00000000000000000000000000000000000000000000000000000000000000602082015250565b6000613812602183612e29565b915061381d826137b6565b604082019050919050565b6000602082019050818103600083015261384181613805565b9050919050565b61385181612958565b82525050565b600060208201905061386c6000830184613848565b92915050565b600061387d82612759565b91507fffffffffffffffffffffffffffffffffffffffffffffffffffffffffffffffff82036138af576138ae6133d8565b5b600182019050919050565b7f4e487b7100000000000000000000000000000000000000000000000000000000600052603260045260246000fd5b600082905092915050565b6138fe83836138e9565b67ffffffffffffffff81111561391757613916612ea6565b5b6139218254612f04565b61392c828285613054565b6000601f83116001811461395b5760008415613949578287013590505b61395385826130c5565b8655506139bb565b601f19841661396986612f35565b60005b828110156139915784890135825560018201915060208501945060208101905061396c565b868310156139ae57848901356139aa601f8916826130a7565b8355505b6001600288020188555050505b50505050505050565b7f5573657220686173206e6f206465627421000000000000000000000000000000600082015250565b60006139fa601183612e29565b9150613a05826139c4565b602082019050919050565b60006020820190508181036000830152613a29816139ed565b9050919050565b7f557365722068617320696e73756666696369656e742062616c616e6365210000600082015250565b6000613a66601e83612e29565b9150613a7182613a30565b602082019050919050565b60006020820190508181036000830152613a9581613a59565b9050919050565b7f496e73756666696369656e742062616c616e636520746f20776974686472617760008201527f2100000000000000000000000000000000000000000000000000000000000000602082015250565b6000613af8602183612e29565b9150613b0382613a9c565b604082019050919050565b60006020820190508181036000830152613b2781613aeb565b9050919050565b7f4e487b7100000000000000000000000000000000000000000000000000000000600052601260045260246000fd5b6000613b6882612759565b9150613b7383612759565b925082613b8357613b82613b2e565b5b828204905092915050565b6000613b9982612759565b9150613ba483612759565b9250828202613bb281612759565b91508282048414831517613bc957613bc86133d8565b5b5092915050565b7f5265656e7472616e637947756172643a207265656e7472616e742063616c6c00600082015250565b6000613c06601f83612e29565b9150613c1182613bd0565b602082019050919050565b60006020820190508181036000830152613c3581613bf9565b905091905056fea2646970667358221220092cc1cb98c026b3900a52da183428e171c724d87e3f82e82ae3fd4b860e268364736f6c63430008130033",
  "immutableReferences": {},
  "source": "// SPDX-License-Identifier: MIT\r\npragma solidity ^0.8.7;\r\nimport \"../../node_modules/@openzeppelin/contracts/utils/Counters.sol\";\r\nimport \"../../node_modules/@openzeppelin/contracts/security/ReentrancyGuard.sol\";\r\n\r\ncontract RentalPlatform is ReentrancyGuard {\r\n  using Counters for Counters.Counter;\r\n  Counters.Counter private _counter;\r\n\r\n  // DATA\r\n  //owner\r\n  address private owner;\r\n\r\n  //total payment made to the contract\r\n  uint private totalPayments;\r\n\r\n  // user struct\r\n  struct User {\r\n    address walletAddress;\r\n    string name;\r\n    string lastname;\r\n    uint rentedCarId;\r\n    uint balance;\r\n    uint debt;\r\n    uint start;\r\n    uint end;\r\n  }\r\n\r\n  // car struct\r\n  struct Car {\r\n    uint id;\r\n    string name;\r\n    string imgUrl;\r\n    Status status;\r\n    uint rentFee;\r\n    uint saleFee;\r\n  }\r\n\r\n  // enum to indicate the status of the car\r\n  enum Status { Retired, InUse, Available }\r\n\r\n  // events\r\n  event CarAdded(uint indexed id, string name, string imgUrl, uint rentFee, uint saleFee);\r\n  event CarMetadataEdited(uint indexed id, string name, string imgUrl, uint rentFee, uint saleFee);\r\n  event CarStatusEdited(uint indexed id, Status status);\r\n  event UserAdded(address indexed walletAddress, string name, string lastname);\r\n  event Deposit(address indexed walletAddress, uint amount);\r\n  event CheckOut(address indexed walletAddress, uint indexed carId);\r\n  event CheckIn(address indexed walletAddress, uint indexed carId);\r\n  event PaymentMade(address indexed walletAddress, uint amount);\r\n  event BalanceWithdrawn(address indexed walletAddress, uint amount);\r\n\r\n\r\n  // users mapping\r\n  mapping(address => User) private users;\r\n\r\n  // cars mapping\r\n  mapping(uint => Car) private cars;\r\n\r\n  //constructor\r\n  constructor() {\r\n    owner = msg.sender;\r\n    totalPayments = 0;\r\n  }\r\n\r\n  //MODIFIERS\r\n  //onlyOwner\r\n  modifier onlyOwner() {\r\n    require(msg.sender == owner, \"Only the owner can call this function\");\r\n    _;\r\n  }\r\n\r\n  //FUNCTIONS\r\n  //Execute Functions\r\n\r\n  //setOwner #onlyOwner\r\n  function setOwner(address _newOwner) external onlyOwner {\r\n    owner = _newOwner;\r\n  }\r\n\r\n  //addUser #nonExisting\r\n  function addUser(string calldata name, string calldata lastname) external {\r\n    require(!isUser(msg.sender), \"User already exists!\");\r\n    users[msg.sender] = User(msg.sender, name, lastname, 0, 0, 0, 0, 0);\r\n\r\n    emit UserAdded(msg.sender, users[msg.sender].name, users[msg.sender].lastname);\r\n  }\r\n\r\n  //addCar #onlyOwner #nonExistingCar\r\n  function addCar(string calldata name, string calldata url, uint rent, uint sale) external onlyOwner {\r\n    _counter.increment();\r\n    uint counter = _counter.current();\r\n    cars[counter] = Car(counter, name, url, Status.Available, rent, sale);\r\n\r\n    emit CarAdded(counter, cars[counter].name, cars[counter].imgUrl, cars[counter].rentFee, cars[counter].saleFee);\r\n  }\r\n\r\n  //editCarMetadata #onlyOwner #nonExistingCar\r\n  function editCarMetadata(uint id, string calldata name, string calldata imgUrl, uint rentFee, uint saleFee) external onlyOwner {\r\n    require(cars[id].id != 0, \"Car with given ID does not exist.\");\r\n    Car storage car = cars[id];\r\n    if(bytes(name).length != 0) {\r\n        car.name = name;\r\n    }\r\n    if(bytes(imgUrl).length != 0) {\r\n        car.imgUrl = imgUrl;\r\n    }\r\n\r\n    if(rentFee > 0) {\r\n        car.rentFee = rentFee;\r\n    }\r\n    if(saleFee > 0) {\r\n        car.saleFee = saleFee;\r\n    }\r\n\r\n    emit CarMetadataEdited(id, car.name, car.imgUrl, car.rentFee, car.saleFee);\r\n  }\r\n\r\n  //editCarStatus #onlyOwner #nonExistingCar\r\n  function editCarStatus(uint id, Status status) external onlyOwner {\r\n    require(cars[id].id != 0, \"Car with given ID does not exist.\");\r\n    cars[id].status = status;\r\n\r\n    emit CarStatusEdited(id, status);\r\n  }\r\n\r\n  //checkOut #existingUser #carIsAvailable #userHasNotRentedACar #userHasNoDebt\r\n  function checkOut(uint id) external {\r\n    require(isUser(msg.sender), \"User does not exist!\");\r\n    require(cars[id].status == Status.Available, \"Car is not available for rent!\");\r\n    require(users[msg.sender].rentedCarId == 0, \"User has already rented a car!\");\r\n    require(users[msg.sender].debt == 0, \"User has an outstanding debt!\");\r\n\r\n    users[msg.sender].start = block.timestamp;\r\n    users[msg.sender].rentedCarId = id;\r\n    cars[id].status =  Status.InUse;\r\n\r\n    emit CheckOut(msg.sender, id);\r\n  }\r\n\r\n  //checkIn #existingUser #userHasRentedACar\r\n  function checkIn() external {\r\n    require(isUser(msg.sender), \"User does not exist!\");\r\n    uint rentedCarId = users[msg.sender].rentedCarId;\r\n    require(rentedCarId != 0, \"User has not rented a car!\");\r\n\r\n    uint usedSeconds = block.timestamp - users[msg.sender].start;\r\n    uint rentFee = cars[rentedCarId].rentFee;\r\n    users[msg.sender].debt += calculateDebt(usedSeconds, rentFee);\r\n\r\n    users[msg.sender].rentedCarId = 0;\r\n    users[msg.sender].start = 0;\r\n    users[msg.sender].end = 0;\r\n    cars[rentedCarId].status = Status.Available;\r\n\r\n    emit CheckIn(msg.sender, rentedCarId);\r\n  }\r\n\r\n  //deposit #existingUser\r\n  function deposit() external payable {\r\n    require(isUser(msg.sender), \"User does not exist!\");\r\n    users[msg.sender].balance += msg.value;\r\n\r\n    emit Deposit(msg.sender, msg.value);\r\n  }\r\n\r\n  //makePayment #existingUser #existingDebt #sufficientBalance\r\n  function makePayment() external {\r\n    require(isUser(msg.sender), \"User does not exist!\");\r\n    uint debt = users[msg.sender].debt;\r\n    uint balance = users[msg.sender].balance;\r\n\r\n    require(debt > 0, \"User has no debt!\");\r\n    require(balance >= debt, \"User has insufficient balance!\");\r\n\r\n    unchecked {\r\n      users[msg.sender].balance -= debt;\r\n    }\r\n    totalPayments += debt;\r\n    users[msg.sender].debt = 0;\r\n\r\n    emit PaymentMade(msg.sender, debt);\r\n  }\r\n\r\n  //withdrawBalance\r\n  function withdrawBalance(uint amount) external nonReentrant {\r\n    require(isUser(msg.sender), \"User does not exist!\");\r\n    uint balance = users[msg.sender].balance;\r\n    require(balance >= amount, \"Insufficient balance to withdraw!\");\r\n\r\n    users[msg.sender].balance -= amount;\r\n\r\n    (bool success, ) = msg.sender.call{value: amount}(\"\");\r\n    require(success, \"Transfer failed.\");\r\n\r\n    emit BalanceWithdrawn(msg.sender, amount);\r\n  }\r\n\r\n  //withdrawOwnerBalance\r\n  function withdrawOwnerBalance(uint amount) external onlyOwner {\r\n    require(totalPayments >= amount, \"Insufficient contract balance to withdraw!\");\r\n\r\n    (bool success, ) = owner.call{value: amount}(\"\");\r\n    require(success, \"Transfer failed.\");\r\n\r\n    totalPayments -= amount;\r\n\r\n    emit BalanceWithdrawn(owner, amount);\r\n  }\r\n\r\n\r\n  //Query Functions\r\n\r\n  //getOwner\r\n  function getOwner() external view returns(address) {\r\n    return owner;\r\n  }\r\n\r\n  //isUser\r\n  function isUser(address walletAddress) internal view returns(bool) {\r\n    return users[walletAddress].walletAddress != address(0);\r\n  }\r\n\r\n  //getUser #existingUser\r\n  function getUser(address walletAddress) external view returns (User memory) {\r\n    require(isUser(walletAddress), \"User does not exist!\");\r\n    return users[walletAddress];\r\n  }\r\n\r\n  //getCar #existingCar\r\n  function getCar(uint id) external view returns(Car memory) {\r\n    require(cars[id].id != 0, \"Car does not exist!\");\r\n    return cars[id];\r\n  }\r\n\r\n  //getCarsByStatus  \r\n  function getCarsByStatus(Status _status) external view returns (Car[] memory) {\r\n    uint count = 0;\r\n    uint length = _counter.current();\r\n    for (uint i = 1; i <= length; i++) {\r\n        if (cars[i].status == _status) {\r\n            count++;\r\n        }\r\n    }\r\n    Car[] memory carsWithStatus = new Car[](count);\r\n    count = 0;\r\n    for (uint i = 1; i <= length; i++) {\r\n      if (cars[i].status == _status) {\r\n        carsWithStatus[count] = cars[i];\r\n        count++;\r\n      }\r\n    }\r\n    return carsWithStatus;\r\n  }\r\n\r\n  //calculateDebt\r\n  function calculateDebt(uint usedSeconds, uint rentFee) private pure returns (uint) {\r\n    uint usedMinutes = usedSeconds / 60;\r\n    return usedMinutes * rentFee;\r\n  }\r\n\r\n  //getCurrentCount\r\n  function getCurrentCount() external view returns (uint) {\r\n    return _counter.current();\r\n  }\r\n\r\n  //getContractBalance\r\n  // Function to return the balance of the contract\r\n  function getContractBalance() external view onlyOwner returns (uint) {\r\n    return address(this).balance;\r\n  }\r\n\r\n  //getTotalPayments\r\n  function getTotalPayments() external view onlyOwner returns (uint) {\r\n    return totalPayments;\r\n  }\r\n\r\n}\r\n",
  "sourcePath": "C:\\Users\\arday\\OneDrive\\Masast\\patika\\courses\\bnb\\CarRentalDapp\\contracts\\bsc\\RentalPlatform.sol",
  "compiler": {
    "name": "solc",
    "version": "0.8.19+commit.7dd6d404.Emscripten.clang"
  },
  "schemaVersion": "3.4.13",
  "updatedAt": "2023-04-23T04:05:39.681Z",
  "devdoc": {
    "kind": "dev",
    "methods": {},
    "version": 1
  },
  "userdoc": {
    "kind": "user",
    "methods": {},
    "version": 1
  },
  "db": {
    "callBytecode": {
      "id": "0xf5caebb42ddb3817c310d6e6869871e54a7238760bc0aa6deb382f7455b274c0"
    },
    "createBytecode": {
      "id": "0xe0131023ba41941180a439d3ff4d04703bc08f268ef8451a52000f8af46b58e0"
    },
    "contract": {
      "id": "0xc3ed334fb9bed93fe6666bdf9bde3def810ff535902f3c51876c7618b0886836"
    }
  }
}